:10000000A06C0020D12A000013E00000012B0000AA
:10001000012B0000012B0000012B0000000000005C
:100020000000000000000000000000003D2800006B
:10003000012B000000000000F527000049DF000050
:10004000912A00009FF00000912A0000912A0000F0
:10005000912A0000912A0000912A0000912A0000B4
:10006000912A0000912A0000912A0000912A0000A4
:10007000912A0000912A0000912A0000912A000094
:10008000912A0000912A0000912A0000912A000084
:10009000912A0000912A0000912A0000912A000074
:1000A000912A0000912A0000912A0000912A000064
:1000B000912A0000912A0000912A0000912A000054
:1000C000912A0000912A0000912A0000912A000044
:1000D000912A0000912A0000912A0000912A000034
:1000E000912A0000912A0000912A0000912A000024
:1000F000912A0000912A0000912A0000912A000014
:1001000001F0FF01102A2BDB10F0070F08D010F8C8
:10011000013B013A8B422DD010F0070F42B3F6D1CC
:10012000F0B441EA012141EA014122F007047FF0E5
:1001300000070023F0E80256083C85EA010586EA3C
:10014000010685FA47F5A3FA87F586FA47F6A5FA78
:1001500087F68EB9EED1F0BC01F0FF0102F0070284
:1001600032B110F8013B013A83EA010313B1F8D12F
:100170000020704701387047002D06BF3546033810
:10018000073815F0010F07D1013015F4807F02BF49
:10019000013015F4C03F0130F0BC0138704700BF9A
:1001A00080F0004002E000BF81F0004142001FBF2C
:1001B0005FEA410392EA030F7FEA226C7FEA236C35
:1001C0006AD04FEA1262D2EB1363C1BFD21841402A
:1001D00048404140B8BF5B42192B88BF704710F0C0
:1001E000004F40F4000020F07F4018BF404211F063
:1001F000004F41F4000121F07F4118BF494292EACB
:10020000030F3FD0A2F1010241FA03FC10EB0C00F6
:10021000C3F1200301FA03F100F0004302D5494283
:1002200060EB4000B0F5000F13D3B0F1807F06D330
:1002300040084FEA310102F10102FE2A51D2B1F128
:10024000004F40EBC25008BF20F0010040EA03001D
:100250007047490040EB0000013A28BFB0F5000F9D
:10026000EDD2B0FA80FCACF1080CB2EB0C0200FA53
:100270000CF0AABF00EBC25052421843BCBFD040A2
:100280001843704792F0000F81F4000106BF80F41C
:1002900000000132013BB5E74FEA41037FEA226CDF
:1002A00018BF7FEA236C21D092EA030F04D092F0AA
:1002B000000F08BF0846704790EA010F1CBF0020DE
:1002C000704712F07F4F04D1400028BF40F000403B
:1002D000704712F100723CBF00F50000704700F05B
:1002E000004343F0FE4040F4000070477FEA226282
:1002F00016BF08467FEA23630146420206BF5FEA53
:10030000412390EA010F40F4800070474FF0000352
:1003100004E000BF10F0004348BF40425FEA000C19
:1003200008BF704743F0964301464FF000001CE0C1
:1003300050EA010208BF70474FF000030AE000BF17
:1003400050EA010208BF704711F0004302D5404255
:1003500061EB41015FEA010C02BF844601460020C7
:1003600043F0B64308BFA3F18053A3F50003BCFAE2
:100370008CF2083AA3EBC25310DB01FA02FC63448F
:1003800000FA02FCC2F12002BCF1004F20FA02F296
:1003900043EB020008BF20F00100704702F1200289
:1003A00001FA02FCC2F1200250EA4C0021FA02F2EA
:1003B00043EB020008BF20EADC7070474FEA4002BE
:1003C000B2F1FE4F0FD34FF09E03B3EB12620DD983
:1003D0004FEA002343F0004310F0004F23FA02F0ED
:1003E00018BF404270474FF00000704712F1610F94
:1003F00001D1420205D110F0004008BF6FF000406B
:1004000070474FF00000704753B94AB9002908BF40
:1004100000281CBF4FF0FF314FF0FF3000F06EB9E5
:10042000ADF1080C6DE904CE00F006F8DDF804E04B
:10043000DDE9022304B070472DE9F047089D0E4620
:1004400004468C46002B40F081808A42174645D9ED
:10045000B2FA82F24AB1C2F1200106FA02F320FA9E
:1004600001F1974041EA030C94404FEA174E230CE8
:10047000BCFBFEF6B9B20EFB16CC43EA0C4306FBFE
:1004800001F0984209D9FB1806F1FF3C80F0158174
:10049000984240F21281023E3B441B1AA4B2B3FBC5
:1004A000FEF00EFB103344EA034400FB01F1A142CD
:1004B00009D93C1900F1FF3380F00181A14240F2DB
:1004C000FE8002383C44641A40EA064000211DB117
:1004D000D4400023C5E90043BDE8F08702B9FFDE40
:1004E000B2FA82F2002A4FD1CB1B4FEA174E1FFA05
:1004F00087F80121B3FBFEFC260C0EFB1C3346EAF9
:10050000034608FB0CF3B34207D9BE190CF1FF30C8
:1005100002D2B34200F2EB808446F61AA3B2B6FBD5
:10052000FEF00EFB106643EA064408FB00F8A04507
:1005300007D93C1900F1FF3302D2A04500F2D28066
:100540001846A4EB080440EA0C40C0E78B4208D9E7
:10055000002D00F0AF800021C5E900060846BDE887
:10056000F087B3FA83F1002949D1B34202D3824222
:1005700000F2BB80841A66EB030301209C46002D29
:10058000AAD0C5E9004CA7E7C2F120039740D840A4
:100590009140DE404FEA174E08434FEA104CB6FB3D
:1005A000FEF11FFA87F80EFB11664CEA064601FBC6
:1005B00008F3B34204FA02F409D9BE1901F1FF3C71
:1005C00080F08E80B34240F28B8002393E44F31AB1
:1005D00086B2B3FBFEF00EFB103346EA034600FB87
:1005E00008F3B34207D9BE1900F1FF3C74D2B342FD
:1005F00072D902383E44F31A40EA01417AE7C1F168
:10060000200703FA01F422FA07F31C4320FA07F942
:1006100006FA01F34FEA144CFE4049EA03094FEA97
:100620001943B6FBFCFE1FFA84F80CFB1E6643EA76
:1006300006460EFB08FAB24502FA01F200FA01F38F
:1006400008D9A6190EF1FF3048D2B24546D9AEF10D
:10065000020E2644A6EB0A061FFA89F9B6FBFCF047
:100660000CFB106649EA064600FB08F8B04507D9BE
:10067000A61900F1FF3C2DD2B0452BD902382644F3
:1006800040EA0E40A6EB0806A0FB02894E45C44690
:10069000CE4618D315D075B3B3EB0C0266EB0E063D
:1006A00006FA07F722FA01F3CE401F43C5E90076A8
:1006B000002111E7294628460EE76646EDE6184672
:1006C00001E74345E7D2B8EB020C69EB04040138BB
:1006D000A646E0E76046D3E760468CE78646B9E782
:1006E000614674E702383C442BE7084647E7ACF123
:1006F000020C3E4411E72946EEE600BF704700BFFA
:1007000010F8012B11F8013B012A28BF9A42F7D0BB
:10071000D01A70470000000010B50446007A61F35B
:10072000C7109DF8081061F3C4002072E2820A48E5
:10073000A3FB0001912202FB031105A3D3E90023CF
:10074000FFF762FE20F07F40A06110BDAFF3008094
:100750008D49FD1A07000000002AE7840000000010
:100760002DE9F04F8DB0044602230B9390F824300E
:1007700090F83800C0F3400003F0F90360F38613EB
:1007800084F8243004F1250105F0B6FA0025A561AE
:100790006561E46194F8203065F3000384F820304B
:1007A000668E3348A6FB0001912303FB06112EA39E
:1007B000D3E90023FFF728FE20F07F4A656031234C
:1007C0002360A560636B0933AAF13102934245D2DD
:1007D000E3600DF09FFF8346618E254EA1FB066707
:1007E000912303FB017720A3D3E900233046394648
:1007F000FFF70AFE002520F07F401E4BA0FB038977
:10080000072303FB00994FF47A720023B6EB08002C
:1008100067EB0901FFF7F8FDE3680BAE0896164A8F
:1008200007920694154A0592049303950290CDF819
:1008300004A000955B460222032128460DF04FFFDD
:10084000314606F079F968B994F8383043F001037D
:1008500084F8383028460DB0BDE8F08FE260002300
:100860006363B6E70C20F6E78D49FD1A0700000028
:10087000002AE7848D49FD1A296B0000C16F000032
:10088000F8B541480CF0D3FB00F0D8F800B300F005
:100890001DFA08BB00F0BAFA054600F0BBFA06469E
:1008A0000CF068F9074600F0B9FA0446C5B1EEB19C
:1008B00010B33FB335480CF0BAFB3B4622463146F5
:1008C000284600F0AFFA18B331480CF0B0FB06E050
:1008D0002F480CF0ACFB02E02D480CF0A8FBF8BD53
:1008E0002C4B2D4A46212D480BF0E0F92C4B2A4A7F
:1008F00047212A480BF0DAF92A4B274A4821274892
:100900000BF0D4F9284B244A492124480BF0CEF9A6
:1009100026480CF08CFB00F011FA07E024480CF09C
:1009200086FB40F21F5000210AF0B6FC214C9422B5
:10093000002120460FF043FE4FF4B17200211E4803
:100940000FF03DFE4FF40042002321461B4809F002
:1009500099FF2388002BE1D019480CF068FB164C56
:1009600033462A461349204600F09CFB2146284680
:1009700000F0BCF90028D4D012480CF058FB044811
:100980000CF055FBABE700BF580D0100F40D010062
:10099000740D0100880D0100680E01009C0D01001E
:1009A000B80D0100CC0D0100E00D0100080E0100A2
:1009B000540E010014070020B0050020D8040020C8
:1009C000200E0100340E010070B506460D460024CD
:1009D000A54207D9044B1868315D83685B68984766
:1009E0000134F5E770BD00BFA807002010B504462C
:1009F000A3685B6CC3B120469847A8B1A3681B6C81
:100A000093B12046984778B1A3685B6B1BB1204631
:100A100098470028ECD1A3685B6A13B12046984739
:100A200018B904480CF003FB10BD03480CF0FFFAA2
:100A3000FAE700BF880E0100700E010010B51548DE
:100A400009F042FC0446144B1860F0B18368DB6A7D
:100A500003B19847104B186883681B6A03B1984725
:100A60000D4B1868836823B19B6C13B102460B4988
:100A70009847094B186883689B6A03B19847064CEE
:100A8000074BC4F80838204610BD06480CF0CFFAD2
:100A9000F9E700BFA40E0100A8070020ED0900003F
:100AA000C9090000AC0E01002DE9F04F8BB00646DD
:100AB00005900F4615460692784C20460CF0B7FA82
:100AC000234603CB286069601A889B782A812846D0
:100AD00000F80A3F728972490BF054FB0A3004B2E5
:100AE000B279704915FA80F00BF04CFB204404B247
:100AF000F2796D4915FA80F00BF044FB204404B202
:100B00007A686A4915FA80F00BF03CFB204404B285
:100B10000022674915FA80F00BF034FBA01D04B2E7
:100B20000022644915FA80F00BF02CFBA01D04B2E2
:100B30000022614915FA80F00BF024FBA01D04B2DD
:100B400000225E4915FA80F00BF01CFB06341FFAF8
:100B500084FBB0790CF02BF8594BA3FB0023C3F3B3
:100B6000CF030493002421E097F84990651C07EB1C
:100B7000C503D3F804A057F83500049B04FB03F821
:100B8000069B03EB0B06FFF719FC02905046FFF79C
:100B900015FC0190CDF80090434622464949304665
:100BA0000BF0F0FA83441FFA8BFBACB297F8483095
:100BB000A342D9D8059E304600F03CFB404DA5FB32
:100BC0000023C3F3CF030794013C049A14FB0233C0
:100BD0009BB20893F0790BF0CFFFA5FB0035C5F36E
:100BE000CF03099300230593D84640E0059A13FBF1
:100BF00002F205FA82F292B206EB860307EB430398
:100C000093F853A006EB86035B0003EBC5033B445C
:100C1000D3F84EB0D3F84A00099B089902FB031998
:100C2000079B13440493069901EB0804FFF7C6FBE6
:100C300002905846FFF7C2FB0190CDF800A04B464A
:100C4000049A204920460BF09DFA80441FFA88F848
:100C50000135ADB206EB860307EB430393F8523040
:100C60009AB2AA42C2D8059B01339BB205933B6856
:100C7000059A9A4202D2059E0025EBE7069C04EBFA
:100C80000802114B03CB44F8080051601B78137223
:100C900008F1080080B20BB0BDE8F08FDC0E010057
:100CA000E80E0100F00E0100F80E0100000F010037
:100CB000080F0100100F0100180F0100200F0100A4
:100CC000D34D6210280F01003C0F010008B518B188
:100CD000044A1060002008BD03480CF0A8F96FF02A
:100CE0001500F8E7B40F0020480F010038B578B1BF
:100CF000A1B10D4C4FF420532246FFF7D5FE01461B
:100D000054F8043CD3F8083820469847002038BDF2
:100D1000064B074A282107480AF0C8FF064B044A39
:100D2000292104480AF0C2FFB80F0020880D0100F5
:100D3000AC0F0100780F0100980F010010B586B0CC
:100D4000002401940294049405942023ADF80C30FF
:100D5000ADF80E300E480CF06AF9204603F0C8FFDB
:100D600058B90C480CF063F9002101A804F05CF8B4
:100D7000044640B9204606B010BD04460146064868
:100D80000CF055F9F6E7014604480CF050F9F1E78C
:100D9000C00F010008100100E00F01002410010045
:100DA00008B558B102468078937BD27B1344C3EBDD
:100DB000C0034FF47A7000FB03F008BD034B044AF4
:100DC00040F25F1103480AF071FF00BF4C100100B0
:100DD000941301006410010038B550B10546FFF7C7
:100DE000DFFF0446A87A0BF0B0FEB4FBF0F0C0B20F
:100DF00038BD034B034A40F2691103480AF056FF1D
:100E00004C100100B013010064100100004870474D
:100E1000A0140100004870473414010000487047D6
:100E2000981401002DE9F04383B002AF00287FD071
:100E30000D4616469846044600297FD0002A00F049
:100E40008380002B00F08680007806F081F900286E
:100E500040F08680A07806F08BF98146002840F0AB
:100E60008580607806F094F98146002840F08680FD
:100E7000E07806F099F9012006F09CF9A07906F0D7
:100E80009FF9814600287DD1607906F0A7F9814657
:100E900000287BD1E07906F0ADF98146002879D1B0
:100EA000002006F0B5F98146002877D1B4F90C008E
:100EB000C0B206F0C7F98146002873D1B4F9080022
:100EC000C0B206F0C5F9814600286FD1A07A06F0BD
:100ED000ABF9814600286DD14146304606F0BEF997
:100EE000814600286AD195F84310CB1D03F4FC73AA
:100EF000ADEB030D02AC05F1130301910093AB7C44
:100F0000AA1C20460BF0E7FD814600285AD16878DC
:100F100029782944284495F84330224689788078F6
:100F200006F0C2F9814620B328480CF080F820E092
:100F3000274B284AA42128480AF0B8FE274B254A07
:100F4000A52125480AF0B2FE254B224AA6212248B7
:100F50000AF0ACFE234B1F4AA7211F480AF0A6FE49
:100F600021480CF064F86FF0150902E01F480CF0FE
:100F70005EF848460437BD46BDE8F0831C480CF0D7
:100F800056F8F6E71B480CF052F8F2E71A480CF056
:100F90004EF8EEE719480CF04AF8EAE718480CF06A
:100FA00046F8E6E717480CF042F8E2E716480CF07E
:100FB0003EF8DEE715480CF03AF8DAE714480CF092
:100FC00036F8D6E713480CF032F8D2E7F0120100F9
:100FD000880D01006813010064100100B80D0100C4
:100FE000CC0D0100E00D01008C100100AC100100DF
:100FF000E41001001C1101005811010088110100CA
:10100000B8110100E8110100181201004812010096
:101010007C120100B812010038B578B10546C079DC
:101020000BF0AAFD0446A87A0BF08FFD6CB1844248
:1010300012D2640090FBF4F080B20EE0074B084A35
:1010400040F2C11107480AF031FE074B044A40F252
:10105000CB1104480AF02AFE012038BD4C100100D3
:10106000C8130100641001002413010010B560B121
:10107000044680790BF09BFDE27B4FF47A7303FB0F
:1010800002F393FBF0F080B210BD034B034A4FF420
:10109000EB7103480AF00AFE4C100100E81301004E
:1010A000641001002DE9F04F87B00593019169B1FB
:1010B0008146144688B11046FFF7D8FF8346059B4A
:1010C0001B7889F849300023019E1EE0534B544A97
:1010D0004FF4847153480AF0E9FD534B504A40F2F3
:1010E000091150480AF0E2FD06EB83075D1CB7F9D1
:1010F0000400FFF70FF949F83500B7F90600FFF7CC
:1011000009F909EBC5035860ABB25B45ECD389F82C
:1011100048B02046FFF760FE83B200932046FFF7F9
:101120007BFF02905FFA80FA84B16389E2799A4288
:1011300013D3009B580083B20093012304934FF014
:101140000008CDF80CB0DDF814B025E0374B384A74
:101150004FF4EF7133480AF0A9FD00230493EEE742
:101160009BF8432098FBF2F302FB13835BFA83F3B3
:10117000DA7C04EB840309EB430383F85320002655
:10118000564522D304EB840409EB440484F852A0AE
:1011900008F101081FFA88F8009B434534D94446FA
:1011A000049B002BDCD018F0010F0CD14FEA580340
:1011B0009BF843101A4693FBF1F301FB13235BFAF0
:1011C00083F3DA7CD5E7FF22D3E7029B039A18FB6F
:1011D000032746FA87F7FFB2019B03EB870704EB6F
:1011E00084056D0005EBC6054D44B7F90400FFF713
:1011F00091F8C5F84A00B7F90600FFF78BF8C5F873
:101200004E000136F6B2BBE7C9F80030019B5B889F
:10121000C9F8043007B0BDE8F08F00BF3C130100EF
:101220007413010064100100980F01004C100100BC
:10123000FC13010038B560B10546807A0BF085FCDF
:101240000446A8790BF0B3FC54B100EB540080B213
:1012500038BD074B074A40F2E91107480AF026FD5E
:10126000064B044A4FF4F77103480AF01FFD00BF14
:101270004C1001001414010064100100501301000F
:1012800008B50B6801330B60014B1B68984708BD1C
:10129000F80000202DE9F84F81468A4615469B4606
:1012A0000A9B002B05DD4FF001080A260027214C80
:1012B00013E001230A93F6E7B5FBF4F05146303012
:1012C000C84708F101080127013EB5FBF4F304FB10
:1012D0001355194BA3FB0434E408092C14D9002F2F
:1012E000EAD1AC42E8D90A9B9E42EDDCBBF1020F89
:1012F000EAD8BBF1010F05D020205146C84708F1BC
:101300000108E1E73020F8E7514605F13000C84711
:10131000BBF1030F01D0BDE8F88F0A9BA3EB0808CF
:1013200008F1FF34B8F1000FF5DD51462020C84721
:10133000A046F5E700CA9A3BCDCCCCCC014B186057
:10134000704700BFF800002000B583B002460B468E
:101350000021019101A903480BF0CAFC03B05DF81C
:1013600004FB00BF8112000010B584B00446019058
:1013700002910021039101A905480BF0B9FC039BE0
:10138000029A934201DA0022E254039804B010BD9D
:10139000C1CC0000054B984204D3054B984203D3BF
:1013A000002070470020704701207047180A010094
:1013B000A432010008B5064B186018B1054B1B6834
:1013C000092B00DC08BD044809F098FFFAE700BFCC
:1013D0005C380020B83700205004002008B50248CF
:1013E00009F08CFF08BD00BF5004002030B589B063
:1013F00000220F490F480FF03FF80F4D0022002345
:10140000CDE90623002404940E230393029401944F
:1014100000940A4B4FF44072094928460EF067FFCA
:10142000084928460EF052FF204609B030BD00BFE3
:10143000DD13000078050020E83700209119000036
:1014400060590020B014010070B403460020054626
:10145000044601E084F0010413F8012B9AB18D4297
:1014600011D2252AF6D0002CF6D0084E965D16F043
:10147000030FF1D0732A02D001350024ECE70122DA
:10148000AA401043F8E770BC704700BF71310100FB
:1014900008B500F0A9FC08480CF0D0F80423282275
:1014A000064907480EF039FC064B074A1A604FF40C
:1014B000004000F0AFFE08BDC4370020E07D0020F2
:1014C000CC370020FC00002071D6000038B5124B4C
:1014D0000024BFF35B8F53E8005F43E80042002A1B
:1014E000F9D1BFF35B8F00E001340C4B0C4A9B1A1F
:1014F000B4EB231F0FDA0A4800EB041043685B7952
:10150000002BF1D02301064AD358DB68002BEBD027
:1015100029469847E8E738BDBC370020F80C0100A1
:10152000D80C0100064BBFF35B8F53E8002F01324C
:1015300043E800210029F8D1BFF35B8F704700BF5B
:10154000BC370020054B064A9B1AB1EBD30F02D2E1
:1015500052F8310070470020704700BFD80C0100DE
:10156000180C010008B50B4BC31A1B11013342685C
:10157000137143681960436801225A71064B1B7846
:101580001BB1054B01221A7008BD044809F0B6FED4
:10159000F7E700BFD80C01004A5900205004002092
:1015A00070B5194B194A9B1A9F2B0FD81E11184B57
:1015B000BFF35B8F53E8002F511C43E80010002855
:1015C000F8D1BFF35B8FF2B900240CE0114B124A43
:1015D0004FF4F97111480AF069FB042200212846F2
:1015E000FFF7C0FF0134B4420DDA084D05EB0415D6
:1015F0002B7B002BF6D02301044AD3585B69002BC8
:10160000EBD09847E9E770BDF80C0100D80C010059
:10161000C037002020150100B4150100B8140100E6
:1016200070B582B00446FFF7B5FE10BB0022002360
:1016300001A9114809F05CF808B1104C19E0019BB0
:101640000122BFF35B8F53E8001F43E8002000280E
:10165000F9D1BFF35B8F019D2E1D1F22214630461D
:101660000FF049F87E2385F82330002385F82430D5
:101670003446204602B070BDCC370020541501001E
:1016800038B1074A904206D3A032904205D30020D9
:10169000704700207047002070470120704700BF4E
:1016A000E07D0020037A13F0010F00D070472DE990
:1016B000F04383B006460CF098F8074630460CF02D
:1016C0007FF801463846FFF7BFFE054604E00123D8
:1016D00003FA04F425EA04056DB3B5FA85F4C4F100
:1016E0001F04214630460CF06EF88146FFF752FE8B
:1016F0000028ECD14846FFF7C3FF0028E7D10F4B85
:101700009945E4D071898909FFF71CFF024601233E
:1017100063F302086FF3C508094B0A495B1AC3F368
:10172000C90363F38F18ADF800803B462146064895
:1017300000F07AF8CBE703B0BDE8F0835415010060
:10174000A00C0100180C010070150100F8B5064648
:1017500019BB144B1B780BB1002403E0FFF7A2FF69
:10176000FAE70134104B114A9B1AB4EB231F14DA29
:101770000E4D05EB04156B685B79002BF1D03146FB
:1017800028460BF073FF0028EBD02701074BDB59ED
:101790001B68314628469847E3E730460CF027F8A7
:1017A000F8BD00BF4B590020F80C0100D80C010017
:1017B00038B50446184B1B7803B940B34FF02003EB
:1017C000EFF3118583F31188BFF36F8F13480BF08C
:1017D00045FF85F31188BFF36F8F70B1104BBFF3D6
:1017E0005B8F53E8002F013A43E800210029F8D12C
:1017F000BFF35B8F2146FFF7A9FF14B9094B1B68A4
:1018000033B906480BF028FF003818BF012038BD57
:10181000FFF75CFEF5E700BF4A590020C4370020FF
:10182000B8370020BC3700202DE9F04182B0804657
:101830000F4616461D4600F0FBFA044640B1012350
:101840004360002202814FF0000362F30003037241
:101850004CB1C4F81080637A032262F307136372F9
:101860006761A661E561002C30D0BDF8203063814E
:101870002A4B1B689847E060294BBFF35B8F53E806
:10188000002F013243E800210029F8D1BFF35B8F1C
:101890004FF02003EFF3118583F31188BFF36F8FAF
:1018A000214620480BF0CEFE85F31188BFF36F8FE1
:1018B0001D4B1B786BB91D4B1B681BB1184A126876
:1018C000012A16D0164A12680A2A1DD002B0BDE8B5
:1018D000F0814FF02003EFF3118483F31188BFF3FD
:1018E0006F8F0020FFF764FF84F31188BFF36F8FC1
:1018F000ECE700220023CDE900234FF4004200234F
:101900000B4809F06BFFE1E7002BDFD008480EF031
:10191000BFFD084809F0F2FCD8E700BFFC0000203A
:10192000B8370020C43700204B5900205C38002015
:101930007805002050040020124B1B7803B170473B
:1019400010B5FFF72DFE002400E001340E4B0F4AC6
:101950009B1AB4EB231F0CDA0C4800EB041043680D
:101960005B79002BF1D02301084AD3581B699847B3
:10197000EBE70020FFF71CFF0028FAD1014B012202
:101980001A7010BD4B590020F80C0100D80C010052
:1019900008B5FFF705FE09F0ABFCFFF70BFD06E00D
:1019A0004FF0FF324FF0FF33044809F0CFFC002026
:1019B000FFF7FEFE0028FAD1F2E700BF5004002036
:1019C000F0B583B006460D46174600F031FA0446DE
:1019D00040B101234360002101814FF0000361F316
:1019E0000003037234B12661637A012262F30713A4
:1019F00063726561002C2ED067812A4B1B68984763
:101A0000E060294BBFF35B8F53E8002F013243E8BE
:101A100000210029F8D1BFF35B8F4FF02003EFF3D3
:101A2000118583F31188BFF36F8F21461F480BF098
:101A300009FE85F31188BFF36F8F1D4B1B7863B9C7
:101A40001C4B1B681BB1184A1268012A15D0164A94
:101A500012680A2A1CD003B0F0BD4FF02003EFF348
:101A6000118483F31188BFF36F8F0020FFF7A0FE6E
:101A700084F31188BFF36F8FEDE700220023CDE9D7
:101A800000234FF4004200230B4809F0A7FEE2E7D1
:101A9000002BE0D008480EF0FBFC084809F02EFCB3
:101AA000D9E700BFFC000020B8370020C437002071
:101AB0004B5900205C38002078050020500400209D
:101AC0002DE9F04182B007460E461546984600F0D3
:101AD000AFF9044640B101234360002202814FF078
:101AE000000362F3000303723CB12761637A0222B0
:101AF00062F3071363726661A561002C2FD0A4F80E
:101B00000A802A4B1B689847E060294BBFF35B8F24
:101B100053E8002F013243E800210029F8D1BFF338
:101B20005B8F4FF02003EFF3118583F31188BFF330
:101B30006F8F21461F480BF085FD85F31188BFF399
:101B40006F8F1D4B1B786BB91C4B1B681BB1184A60
:101B50001268012A16D0164A12680A2A1DD002B04D
:101B6000BDE8F0814FF02003EFF3118483F3118877
:101B7000BFF36F8F0020FFF71BFE84F31188BFF3C4
:101B80006F8FECE700220023CDE900234FF40042E1
:101B900000230B4809F022FEE1E7002BDFD00848C4
:101BA0000EF076FC074809F0A9FBD8E7FC000020FE
:101BB000B8370020C43700204B5900205C38002083
:101BC000780500205004002030B583B01C460BF08F
:101BD00052FE00282FD0054644812A4B1B689847A7
:101BE000E860294BBFF35B8F53E8002F013243E8D5
:101BF00000210029F8D1BFF35B8F4FF02003EFF3F2
:101C0000118483F31188BFF36F8F29461F480BF0AF
:101C100019FD84F31188BFF36F8F1D4B1B7863B9D7
:101C20001C4B1B681BB1184A1268012A15D0164AB2
:101C300012680A2A1CD003B030BD4FF02003EFF326
:101C4000118483F31188BFF36F8F0020FFF7B0FD7D
:101C500084F31188BFF36F8FEDE700220023CDE9F5
:101C600000234FF4004200230B4809F0B7FDE2E7E0
:101C7000002BE0D008480EF00BFC084809F03EFBB2
:101C8000D9E700BFFC000020B8370020C43700208F
:101C90004B5900205C3800207805002050040020BB
:101CA00070B582B005460E4600F0C2F8044640B159
:101CB00001234360002202814FF0000362F300031E
:101CC000037204B12561002C2ED06681294B1B685C
:101CD0009847E060284BBFF35B8F53E8002F013239
:101CE00043E800210029F8D1BFF35B8F4FF02003B8
:101CF000EFF3118583F31188BFF36F8F21461F48DF
:101D00000BF0A0FC85F31188BFF36F8F1C4B1B7881
:101D100063B91C4B1B681BB1174A1268012A15D006
:101D2000154A12680A2A1CD002B070BD4FF0200379
:101D3000EFF3118483F31188BFF36F8F0020FFF757
:101D400037FD84F31188BFF36F8FEDE70022002386
:101D5000CDE900234FF4004200230B4809F03EFD7B
:101D6000E2E7002BE0D008480EF092FB074809F0AC
:101D7000C5FAD9E7FC000020B8370020C43700209E
:101D80004B5900205C3800207805002050040020CA
:101D900000B583B004380190BFF35B8F50E8003F7B
:101DA0005A1E40E800210029F8D1BFF35B8F012BB8
:101DB00002D003B05DF804FB01A9024808F0CEFC94
:101DC000F7E700BFCC37002010B582B00190019B2F
:101DD00033B11C6801A9034808F0C0FC0194F6E780
:101DE00002B010BD6038002008B520231A46024911
:101DF00002480DF092FF08BD807E00206038002070
:101E000010B582B0002301930120FFF7D1FC0446F6
:101E1000FFF788FB0022002301A9044808F068FCB2
:101E200008B1002CF0D1019802B010BD603800203C
:101E300000B583B0002301930BF01EFC50B10022CB
:101E4000002301A9074808F053FC30B9019803B0FA
:101E50005DF804FB00220023F3E7FFF7D1FF0190B8
:101E6000F4E700BF60380020F0B583B0019004466D
:101E70000BF0A6FC237A13F0010F01D1064650BBEC
:101E8000019B1A7A12F0020F28D101A9154808F017
:101E900065FC03B0F0BD01980BF0A7FC3146FFF7DD
:101EA000D3FA074688B9EBE72846FFF771FF0134FC
:101EB000B442E5D2214601980BF085FC0546FFF7B8
:101EC000DFFB0028F3D0002FE5D027FA04F313F04E
:101ED000010FECD0E8E700273C46E9E75869FFF737
:101EE00073FFD2E7603800200EB400B582B001461F
:101EF00003AB53F8042B019304480AF0F9FE0020C9
:101F000002B05DF804EB03B0704700BF17DC0000BF
:101F1000F0B585B011F0440F05D01A4B1C6834B9E8
:101F2000002005B0F0BD1849FFF7DEFFF9E7174BB9
:101F30001968B2FBF1F1B1FBF4F5154AA2FB0532C9
:101F4000D20A4FF4616606FB1256124BA3FB0673CE
:101F50005B0904FB15114FF47A7505FB01F1B1FB28
:101F6000F4F707FB141105FB01F1B1FBF4F4029443
:101F70000197C3EB0311A6EB810100910649FFF71E
:101F8000B3FFCEE77C380020C01501008038002068
:101F9000C5B3A29189888888CC15010061B108B5C4
:101FA0002AB1064A52F8232012B9054A00E0044A31
:101FB0000449FFF799FF08BD704700BF40160100B4
:101FC000E8150100981E010011F0100F0BD108B5A3
:101FD00011F0200F03D00449FFF786FF08BD034925
:101FE000FFF782FFFAE77047EC120100700D010065
:101FF0002DE9F04105460F46164698460699FFF72B
:10200000E3FF0024444505DA24492846FFF76CFF26
:102010000134F7E7002409E020492846FFF764FF70
:102020000BE01F492846FFF75FFF01340F2C0CDC43
:10203000002C02DD14F0070FEED0B442F1D23A5D6D
:1020400018492846FFF750FFEFE717492846FFF7E2
:102050004BFF002409E011492846FFF745FF0BE03C
:1020600012492846FFF740FF01340F2C13DC002CE7
:1020700002DD14F0070FEED0B44207D23A5D0C4BEC
:10208000D35C13F0970FEBD12E22E9E703492846E2
:10209000FFF72AFFE8E7BDE8F08100BF1416010052
:1020A000F8150100F0150100FC15010000160100F3
:1020B00071310100F8B5044616461D4649B900279E
:1020C00086B10123079A934013F0100F16D10C4EDE
:1020D00009E00C4B079A53F822200B49FFF704FF45
:1020E0000746EDE7064E06992846FFF72BFA02460B
:1020F00031462046FFF7F8FE3844F8BD034EF2E7BC
:10210000041601007C160100101601000C160100D7
:102110002DE9F04389B007460E46914698460BF0EC
:1021200064FB02460E493046FFF7DEFE0024102510
:102130000395234603AA0DEB050138460BF0AFFBD0
:10214000039A52B1CDF800804B460DEB05013046A5
:10215000FFF74EFF039D2C44E9E709B0BDE8F0838B
:10216000981E0100F0B583B006460C4600273D4698
:102170000DE0A268134413F8017C0A2F14BF002756
:10218000012720460BF03AFD019B1D4473B1E36823
:1021900001932B4601AAA16830460BF080FB6368CF
:1021A000019A1A60019B002BEBD0E2E70FB903B054
:1021B000F0BD02492046FFF797FEF8E71816010028
:1021C00070B582B0046843685D6842F20F738B4259
:1021D00028BF0B460C4A052168460AF036FF064622
:1021E0002B460B22094920460BF061FB2B46324659
:1021F000694620460BF05BFB2B461B220449204618
:102200000BF055FB02B070BD1C16010070160100EA
:1022100054160100074B01221A60074B984205D95A
:102220004008044A13685B001360F6E7034B18602C
:10223000704700BF8038002040420F007C380020EB
:1022400008B5064808F040F810B1054A506008BDCE
:10225000044B054A2D21054809F028FDA40E010074
:102260008C38002090160100181701009416010008
:1022700008B502480BF0C2FC08BD00BF48170100BA
:1022800008B50248FFF79CFF08BD00BF48170100D2
:1022900010B50C4608460BF086FA0F22214603487B
:1022A0000BF0D5FC20460BF0A2FA10BD4817010038
:1022B000014B01221A7070474D59002008B518B91A
:1022C000084B00221A7008BD074B1B7823B141F25E
:1022D00088300DF0F7FFF6E7A420002108F0DCFFBE
:1022E000F1E700BF4D5900204E59002038B5044693
:1022F0000A4B01221A700A4B1B7803B938BD002023
:1023000000F04EFA0028F9D0044B1B78002BF5D0D2
:10231000651E2046FFF7D2FF2C46F0E74D590020FE
:102320004E590020F8B506460D46042712E04FF03E
:10233000FF324FF0FF33174808F008FB0EE0154856
:1023400008F08EFB14E03846FFF7D0FFDCB9124BE3
:102350001B78C3B1114B1B78002BE8D02A463146BD
:10236000002000F0B9F904460C4B1B78002BE6D096
:10237000002CE8D1084B1B78002BE7D0013F3846F2
:10238000FFF79CFFE2E714B9034B1B7803B92C4617
:102390002046F8BDAC0400204D5900204E590020C5
:1023A00008B503480BF02AFC024B01221A7008BD45
:1023B000801701004E59002008B50248FFF700FFC2
:1023C00008BD00BF8017010010B50C4608460BF091
:1023D000EAF90F22214603480BF039FC20460BF0A6
:1023E00006FA10BD8017010010B504460A2807D070
:1023F000074B1868E1B283685B689847204610BDB8
:10240000034B186883685B680D219847F0E700BFAD
:10241000BC38002010B5044C204601F019F82046C5
:10242000FEF78CFF10BD00BFE923000008B504488B
:1024300007F04AFF034B1860FFF7ECFF002008BDD0
:10244000A40E0100BC38002008B501214FF48070B3
:102450000BF04BFC28B100210A480BF06CFC437ACE
:1024600033B102214FF482700BF03FFC28B908BD54
:10247000002104480BF034FDF3E7012101480BF083
:102480002FFDF4E7CC03002020F07F40014BC3F880
:102490004005704700100140014BD3F840057047DC
:1024A0000010014082B0044B00221A601B680193A7
:1024B000019B02B0704700BF40110140024B4FF436
:1024C0008032C3F84423704700100140024B4FF4A0
:1024D0008032C3F80823704700100140024B4FF4CC
:1024E0008032C3F80423704700100140014BD3F839
:1024F000040570470010014038B5FFF7D3FFFFF720
:10250000CBFF054D2C6821460BF020FD04442C60C8
:1025100009F0C2F838BD00BFD838002038B5FFF741
:10252000E5FF0446FFF7B8FF0546FFF7BBFF20466F
:10253000FFF7AAFFFFF7C2FF214628460BF006FD72
:10254000012805D0054B4FF40032C3F8802138BD77
:102550000F200DF0B7FEFFF7A5FFF3E700E100E065
:1025600038B5134807F0B0FEF0B182681268012157
:102570009047104D0024C5F80845FFF793FF0E4B18
:102580004FF40032C3F88021FFF7A8FF2246012153
:10259000112000F095F9112000F060F90123074A9D
:1025A00013602B60204638BD4FF0FF30FBE700BFC3
:1025B000981701000010014000E100E00810014000
:1025C00038B5B0F1FF3F1ED0441E114B9C4201DCD8
:1025D000002C1BDD0E4B9C4200DD0E4CFFF786FFEE
:1025E0000D4B1D6829460BF0B1FCB0F5000F00D370
:1025F000002420440130B0F5000F00D305482844E2
:102600000BF0DAFC38BD00F50000DDE70024E5E75B
:10261000FEFF7F00FFFF7F00D838002010B54FF08D
:102620002003EFF3118483F31188BFF36F8FFFF75B
:102630005DFF044B19680BF089FC84F31188BFF32C
:102640006F8F10BDD838002038B54FF02003EFF35E
:10265000118583F31188BFF36F8FFFF747FF054B99
:102660001C6821460BF072FC204485F31188BFF3EF
:102670006F8F38BDD8380020114B03221A615A6180
:1026800010499961104ADA614FF480621A6200229F
:102690009A625A62DA6219660C4959661021996683
:1026A0001A67DA665A670A4A1068C3F80700094AC7
:1026B00092E803001860998020229A71704700BF49
:1026C000DC380020F0170100943900208439002004
:1026D000FC170100001801002DE9F84304460E46DE
:1026E000154600EB40032D4A02EBC302936A576A7A
:1026F000BB424BD800EB4002284901EBC202D2F8A2
:102700002080A8EB070909F1FF32954204D9134450
:102710009D4217D900203EE0DFF88080631C03EB68
:10272000430308EBC30358682A46314638440DF08A
:1027300038FF3D4404EB440408EBC408C8F82450B7
:10274000012028E0431C03EB4303144A02EBC303BC
:1027500058684A46314638440DF023FFA7EB080776
:102760007F190BD0631C03EB43030C4A02EBC3033A
:102770003A4606EB090158680DF013FF04EB4404D8
:10278000064B03EBC4046762012004E0DB1B013B42
:10279000AB42C1D20020BDE8F88300BFDC38002086
:1027A000064B00EB400203EBC202926A00EB4000D2
:1027B00003EBC000406A801A704700BFDC3800207D
:1027C000094A9368D86609490968196708494B6836
:1027D00043F080534B60002383F31188BFF36F8F66
:1027E0009368186F704700BF745800209C2F010039
:1027F00000ED00E00F498A684FF030001044EFF31D
:10280000098C80E8F01F202080F31188BFF36F8FC0
:10281000094F4FF000664A6A8A603E60D06E00231E
:10282000D36680F3118802F1300090E8F01F8CF33A
:10283000098870477458002004ED00E01EF0040F72
:102840000CBFEFF30880EFF30980816911F8021CD7
:102850000229FFD001B50BF0D6FB01BD43B2002B1E
:1028600008DB00F01F005B09012202FA00F0024AB7
:1028700042F82300704700BF00E100E043B2002BA4
:102880000DDB00F01F005B09012202FA00F020338B
:10289000034A42F82300BFF34F8FBFF36F8F704797
:1028A00000E100E04209054B53F8222000F01F0030
:1028B000012303FA00F01040704700BF00E100E080
:1028C000013143B2002B08DB4901C9B203F1604377
:1028D00003F5614383F80013704700F00F004901CE
:1028E000C9B2014B1954704714ED00E008B572B637
:1028F000044B186A08B962B608BD00221A620DF0CE
:102900005FF9F8E77458002010B48C18016642662D
:10291000A4F1200222F00702094921F0010191618E
:102920001360019B5360029B9360039BD3604FF045
:102930008073D36102650023C36610BC704700BF7B
:1029400091D00000F8B506460C4617461D4600F02B
:10295000B1FC3C4424F00704074B9E60284684F3F6
:102960000988002163B681F31188BFF36F8F0022BD
:1029700000230AF08DFB00BF74580020014910228B
:102980000A60704710ED00E072B6404080F3118895
:10299000BFF36F8FBFF34F8F30BF62B6BFF36F8F40
:1029A000704700BF70B582B0044601264FF00003A7
:1029B00066F302036FF3C5031C4D1D4AAD1AC5F340
:1029C000C90565F38F13ADF800308368426801686C
:1029D0001848FEF729FF4FF0000366F302036FF378
:1029E000C50365F38F13ADF8003063692269E168B0
:1029F0001148FEF719FF4FF0000266F302026FF371
:102A0000C50265F38F12E1690C48FEF7D9FF4FF05C
:102A1000000266F302026FF3C50265F38F12A1692B
:102A20000748FEF7CDFF02B070BD00BFB80C010033
:102A3000180C01000818010038180100681801007E
:102A40007818010030BFFFF7FDBF00BF08B50E4B7F
:102A50000E4A22F07F029A60BFF34F8FBFF36F8F51
:102A6000D3F8882022F47002C3F88820EFF314838F
:102A700023F0040383F3148807F092FD07F09CFD14
:102A800000F0D8FB07F0D6FD00ED00E000000000EC
:102A900001B572B60B4A106A00281EBF00211162F0
:102AA0000DF08EF862B6EFF30580A0F110004FEA4A
:102AB000C0000549014409C99847BDE801400349E0
:102AC0000847000074580020980A010019320000DD
:102AD0000BF020FB202080F3118808484FF40061A0
:102AE000401880F30988EFF314800221084380F333
:102AF0001488BFF36F8FFFF7A9FF0000E06D00207F
:102B0000EFF30880EFF30981724601B500F014FB82
:102B100001BD00BF08B54FF00001012363F30201BE
:102B20006FF3C5014E4B4F4A9B1AC3F3C90363F3BE
:102B30008F114D48FFF7B4F84C4B9B6A13F0007FA0
:102B400021D14A4B9B6A13F0807F2ED1474B9B6A61
:102B500013F4002F3BD1454B9B6A13F4802F48D1CF
:102B6000424B9B6A13F4003F55D1404B9B6A13F4D0
:102B7000803F62D13D4A936A6FEA03436FEA134391
:102B80009362002008BD4FF00001012363F30201AE
:102B90006FF3C501324B334A9B1AC3F3C90363F386
:102BA0008F113348FFF77CF8CBE74FF0000101238A
:102BB00063F302016FF3C501294B2A4A9B1AC3F341
:102BC000C90363F38F112B48FFF76AF8BEE74FF094
:102BD0000001012363F302016FF3C501204B214A79
:102BE0009B1AC3F3C90363F38F112348FFF758F807
:102BF000B1E74FF00001012363F302016FF3C50158
:102C0000174B184A9B1AC3F3C90363F38F111B4870
:102C1000FFF746F8A4E74FF00001012363F3020138
:102C20006FF3C5010E4B0F4A9B1AC3F3C90363F33D
:102C30008F111348FFF734F897E74FF00001012395
:102C400063F302016FF3C501054B064A9B1AC3F3F8
:102C5000C90363F38F110B48FFF722F88AE700BF1F
:102C6000B80C0100180C0100A818010000ED00E0EC
:102C7000C0180100D4180100F0180100101901005B
:102C8000381901005419010008B54FF00001012363
:102C900063F302016FF3C501054B064A9B1AC3F3A8
:102CA000C90363F38F110448FEF7FAFF08BD00BFA4
:102CB000B80C0100180C01008019010070B5054620
:102CC0000E4614464FF00001012363F302016FF337
:102CD000C501534B534A9B1AC3F3C90363F38F11C6
:102CE0005148FEF7DDFF514B9B6A13F0100F1FD1C7
:102CF0004E4B9B6A13F0080F2CD14C4B9B6A13F080
:102D0000020F39D1494B9B6A13F0010F64D1474B35
:102D10009B6A13F0200F71D1444B9A6A9A6A42F071
:102D2000FF029A6228460BF07AF92070002070BDED
:102D30004FF00001012363F302016FF3C501384B2B
:102D4000384A9B1AC3F3C90363F38F113848FEF75F
:102D5000A7FFCDE74FF00001012363F302016FF3FA
:102D6000C5012F4B2F4A9B1AC3F3C90363F38F117D
:102D70003048FEF795FFC0E74FF00001012363F3F1
:102D800002016FF3C501264B264A9B1AC3F3C90300
:102D900063F38F112848FEF783FF244B596B9B6A1E
:102DA00013F0800FAED04FF00002012363F3020254
:102DB0006FF3C5021A4B1B481B1AC3F3C90363F315
:102DC0008F121E48FEF7FCFD002E9BD0174A936A17
:102DD00023F08003936295E74FF00001012363F332
:102DE00002016FF3C5010E4B0E4A9B1AC3F3C903D0
:102DF00063F38F111248FEF753FF88E74FF000018D
:102E0000012363F302016FF3C501054B054A9B1AC9
:102E1000C3F3C90363F38F110A48FEF741FF7BE751
:102E2000B80C0100180C0100B819010000ED00E019
:102E3000D0190100041A0100181A0100301A01000B
:102E4000481A0100681A010070B505460E4614467E
:102E50004FF00001012363F302016FF3C5015F4BE3
:102E60005F4A9B1AC3F3C90363F38F115D48FEF7F2
:102E700017FF5D4B9B6A13F4805F24D15A4B9B6A0A
:102E800013F4006F31D1584B9B6A13F4007F3ED18D
:102E9000554B9B6A13F4806F69D1534B9B6A13F4B3
:102EA000807F76D1504B9B6A13F4005F40F08380A3
:102EB0004D4A936A43F47F43936228460BF0AFF880
:102EC0002070002070BD4FF00001012363F3020168
:102ED0006FF3C501414B424A9B1AC3F3C90363F325
:102EE0008F114248FEF7DCFEC8E74FF000010123D6
:102EF00063F302016FF3C501384B394A9B1AC3F3E0
:102F0000C90363F38F113A48FEF7CAFEBBE74FF0DF
:102F10000001012363F302016FF3C5012F4B304A17
:102F20009B1AC3F3C90363F38F113248FEF7B8FE4F
:102F30002D4B996B9B6A13F4004FA9D04FF0000200
:102F4000012363F302026FF3C502244B24481B1ACA
:102F5000C3F3C90363F38F122748FEF731FD002E38
:102F600096D0214A936A23F40043936290E74FF08E
:102F70000001012363F302016FF3C501174B184AE7
:102F80009B1AC3F3C90363F38F111C48FEF788FE35
:102F900083E74FF00001012363F302016FF3C501E2
:102FA0000E4B0F4A9B1AC3F3C90363F38F111448E6
:102FB000FEF776FE7CE74FF00001012363F3020188
:102FC0006FF3C501054B064A9B1AC3F3C90363F3AC
:102FD0008F110C48FEF764FE6AE700BFB80C0100D1
:102FE000180C0100981A010000ED00E0B01A010071
:102FF000041A0100C41A0100E01A0100F81A0100C5
:10300000141B0100681A010070B505460C464FF00C
:103010000001012363F302016FF3C5012B4B2C4A1E
:103020009B1AC3F3C90363F38F112A48FEF738FED6
:1030300000232370284BDE6A16F0020605D1264BCA
:10304000D86A10F0804013D170BD4FF00001012309
:1030500063F302016FF3C5011C4B1D4A9B1AC3F3B6
:10306000C90363F38F111D48FEF71AFE0020EBE73A
:103070004FF00001012363F302016FF3C501134B0D
:10308000134A9B1AC3F3C90363F38F111448FEF765
:1030900007FE144B1B7843B9134B1B785BB9134BDA
:1030A0001B889BB26BB93046CEE7224601212846E9
:1030B000FFF704FEC8E7224601212846FFF7C4FEB9
:1030C000C2E72846FFF726FDBEE700BFB80C0100A7
:1030D000180C01002C1B010000ED00E0441B010056
:1030E000681B010028ED00E029ED00E02AED00E07A
:1030F00008B50A464FF00003012161F302036FF3A4
:10310000C50308480849401AC0F3C90060F38F138B
:103110000F2A05DC0549103A0548FEF7D1FC08BD29
:103120000449F8E7B80C0100180C0100881B0100E5
:10313000BC1B0100A01B0100F0B58BB02E4B5D68DD
:10314000C5F30805002383F31188BFF36F8F02F0E6
:103150007F43B3F17F4F2BD102F00C03082B10D02B
:1031600012F0080F21D00C4600270DF12702294646
:1031700020460AF056FF06469DF82730DBB10BB01B
:10318000F0BD4FF00001012363F302016FF3C501AD
:103190001A4B1B4A9B1AC3F3C90363F38F111948D7
:1031A000FEF77EFD00273C46DFE704460127DCE70B
:1031B00000273C46D9E701AD20686168A268E36852
:1031C0000FC520696169A269E3690FC54FB1089B0A
:1031D000C3F308025AB96FEA53236FEA43230893F3
:1031E00005E0089B23F4FF7323F00103089301A972
:1031F00030460AF0FCFEC2E700ED00E0B80C01002A
:10320000180C0100D01B0100024A536943F010035F
:103210005361704700ED00E0044B9968586A88429A
:1032200003D003494FF080520A6070477458002061
:1032300004ED00E0002206E002F00F01094B0B4410
:103240002021197601322F2A0ADC53B2002BF3DB3E
:1032500003F1604303F56143202183F80013F1E794
:10326000704700BFFCEC00E038B504464FF0200387
:10327000EFF3118583F31188BFF36F8F07F072FEB0
:103280000A4B9B68A34203D028460CF0D6FE38BDFB
:10329000074B5B68C3F308032BB1054A536843F03F
:1032A00080535360F0E72846FFF78AFA74580020ED
:1032B00000ED00E000B585B0084B0193084B029388
:1032C000084B039301AB0093074B084A0121684662
:1032D0000AF0FBFE05B05DF804FB00BF0000002013
:1032E0000000000000000B0600000220000000208B
:1032F000064A90600B6823F01F03034343F010035A
:10330000D3608B6843F001031361704790ED00E0D8
:1033100010B5072804D80446FFF7EAFF204610BD81
:103320004FF00002012363F302026FF3C502074B63
:1033300007495B1AC3F3C90363F38F1201460548BB
:10334000FEF73EFB6FF01504E8E700BFA80C010094
:10335000180C0100001C01002DE9F04780460F46C3
:1033600099461546002409E03146E8B20AF08EFE7F
:10337000054610F1160F24D001350134BC4220DA85
:1033800058F824607268002AF7D0B9F1000FEBD02A
:1033900030460AF06AFE0028E6D14FF00002012311
:1033A00063F302026FF3C502074B08495B1AC3F3CC
:1033B000C90363F38F1221460548FEF701FB6FF046
:1033C00015052846BDE8F087A80C0100180C01007F
:1033D000281C010010B5034C01232278FFF7BCFF25
:1033E000207010BD4F590020034B05225A60BFF3D7
:1033F0004F8FBFF36F8F704790ED00E0BFF35F8F8B
:10340000014B00225A60704790ED00E038B50E4B3A
:103410001D68082D15D8FFF7F1FF0024A5420AD931
:10342000094B596804EB4402930019442046FFF706
:103430005FFF0134F2E7054B1D70FFF7D5FF002059
:1034400038BD4FF0FF30FBE7641C01004F590020EE
:10345000014B1860704700BF0401002070B506469C
:103460000D46002400E00134AC4208DA054B1B682D
:10347000984730550A2801D00D28F4D10134204650
:1034800070BD00BF00010020F8B505460F460024BE
:1034900004E0094B1B68307898470134BC4208DAD5
:1034A0002E192B5D0A2BF4D1034B1B680D20984776
:1034B000EFE73846F8BD00BF0401002008B505223B
:1034C000024901200AF010FEFEE700BF4C1C01007B
:1034D00038B504464FF0FF324FF0FF330B4809F088
:1034E000C7FD0B4B18680B4BC5182044C3F10053A4
:1034F00003F50033984206D2054B1860034809F0E3
:10350000B2FD284638BD4FF0FF35F7E780040020B4
:10351000943D0020948700204FF02003EFF31182A8
:1035200083F31188BFF36F8F01230649C1F840353B
:103530004FF08041C1F8783582F31188BFF36F8F67
:103540000020704700E0014030B108B58001034B16
:1035500043F00103984708BD704700BF500D0100BC
:10356000402928BF402100238B4217D270B4C45C8D
:1035700024095A000C4E345D0C4D05F81340C45C10
:1035800004F00F040132345DAC5401338B42EED3AE
:103590000648002200F8132070BC70470348002240
:1035A00000F81320704700BFDC1C0100983D00208C
:1035B000F0B58BB004460378032B38D8DFE803F06E
:1035C00002212B311D4B93E803000790ADF820102A
:1035D000090C8DF8221063792279E178A078667859
:1035E000174D07AF0597049603900291019200933F
:1035F000A379144A1E21284609F027FD28460BB05E
:10360000F0BD114B93E803000790ADF82010090CB2
:103610008DF82210DFE70D4A07AB07CA03C31A80F3
:10362000D9E70B4A07AB07CA03C31A80D3E7094A95
:103630000A2107A809F009FDCDE700BF881C010099
:103640001C3E0020A01C0100901C0100C41C0100B5
:10365000D01C0100981C010082685178074B83F848
:10366000381051885987117983F83910B2F807104A
:103670009987B2F80520DA87704700BF0000002064
:10368000034B826852F8010F516803C3704700BFB3
:10369000A0000020F0B48668741C074F41363D46F8
:1036A00020686168A268E3680FC510342F46B442F1
:1036B000F5D1F0BC704700BF48000020034B826882
:1036C00052F8010F516803C3704700BF400000204B
:1036D0008368197ADA7942EA012198795A7942EABB
:1036E000002242EA01421879D97841EA002198780B
:1036F0005B7843EA002343EA01430349C1F8A83059
:10370000C1F8AC20704700BF0000002070B48DB03D
:1037100006466C460A4D0FCD0FC40FCD0FC495E879
:103720000F0084E80F000B2E03D906480DB070BCC3
:1037300070470CAB03EB860656F8300CF6E700BF7B
:10374000000D0100F01D0100032801D90248704757
:10375000024B53F820007047F01D0100F0230100D8
:10376000022807D1032901D903487047034B53F8B6
:103770002100704700487047F01D0100D023010070
:10378000032801D902487047024B53F820007047C4
:10379000F01D01001024010083681B78ABB90B4BAE
:1037A00000221A60BFF35B8F094B53F8982FBFF3C9
:1037B0005B8F02F00502BFF35B8F53E8001F43E805
:1037C00000200028F9D1BFF35B8F7047603E0020D6
:1037D0000000002070B5054600240A4BDB79A342A7
:1037E0000CD92646C4EBC4010722064B19442846CF
:1037F0000CF0C9FE20B10134E4B2EEE76FF001062F
:10380000304670BD0000002010B54FF000040223C8
:1038100063F302046FF3C504094B0A4A9B1AC3F30E
:10382000C90363F38F1481898068FFF799FEFDF760
:10383000F7FE014622460448FEF7C2F810BD00BF5D
:10384000900C0100180C0100F81D0100F0B585B0C6
:1038500005460E461446907905F058FB514B8342BD
:103860001DD04FF00006022363F302066FF3C50676
:103870004D4B4E4A9B1AC3F3C90363F38F16009551
:10388000A079019005F042FB0290464B039333462A
:10389000042269464648FEF797F905B0F0BD204678
:1038A00005F03CFB00EB4000424B03EB80004388FB
:1038B000AB4229D1204605F031FB00EB40003D4BE7
:1038C00003EB800043680BB1002E3AD0204605F090
:1038D00025FB00EB4000374B03EB80008368002B97
:1038E000DBD0204605F01AFB324D00EB400005F816
:1038F0002060204605F012FB00EB400005EB800540
:10390000A86807F0FBFCC8E74FF00007022363F349
:1039100002076FF3C507244B244A9B1AC3F3C9035C
:1039200063F38F17204605F0F9FA00EB4000214BB6
:1039300003EB80003B46428829461F48FEF7C0F84B
:10394000B8E7204605F0EAFA00EB4000194B03EB1C
:103950008000426813685168107A01F01F05012247
:10396000AA4070B1490903EB8103BFF35B8F53E8B1
:10397000001F114343E800100028F8D1BFF35B8F0C
:10398000A4E7490903EB8103D243BFF35B8F53E8FC
:10399000001F114043E800100028F8D1BFF35B8FEF
:1039A00094E700BF28050020900C0100180C0100CE
:1039B0001C1E01003C3E0020541E010038B5044688
:1039C000042108300BF083FE4578224601784088B8
:1039D000FFF73CFF05B938BD014807F08FFCFAE757
:1039E000B000002038B50446032108300BF06FFE0C
:1039F0000578A36822461978B0F80100FFF726FF82
:103A000005B938BD014807F079FCFAE7B00000209D
:103A10002DE9F04186B04FF00004032363F3020464
:103A20006FF3C504394B3A4A9B1AC3F3C90363F3D6
:103A30008F14384BDB79012B2CD9374E3548FFF7E3
:103A4000B7FDFDF7EDFD0246234631463348FEF74C
:103A500037F801242F4BDB79A3421DDD032363F3E9
:103A600002056FF3C505294B294A9B1AC3F3C90305
:103A700063F38F15C4EBC40326481844FFF798FD81
:103A8000FDF7CEFD02462B4621462548FEF718F8E5
:103A90000134DFE7234ED1E703274FF0000567F33A
:103AA00002056FF3C505194C194BE41AC4F3C90498
:103AB00064F38F15174E96F838804046FFF726FEC0
:103AC0000290CDF80C80738F0493F38F05932B46EF
:103AD000042202A91448FEF777F84FF0000567F3B7
:103AE00002056FF3C50564F38F1596F8394020463B
:103AF000FFF70CFE0146ADF80050B38F22460B488D
:103B0000FDF792FE06B0BDE8F08100BF900C010009
:103B1000180C010000000020881E01008C1E01000E
:103B20009C1E010020130100B01E0100F01E0100C8
:103B3000F0B583B00446012108300BF0C8FD0578CC
:103B4000002323BB214A02EBC30012F83320954225
:103B500008D1A1894378994206D343682046984703
:103B600003B0F0BD0133ECE74FF00003012262F334
:103B700002036FF3C503164A1648121AC2F3C902AC
:103B800062F38F132A461448FDF79AFFE8E74FF0D7
:103B90000006022363F302066FF3C5060C4B0D4AC1
:103BA0009B1AC3F3C90363F38F16A7893946A0682C
:103BB000FFF7D6FCFDF734FD0346ADF800603A464A
:103BC00029460648FDF730FECAE700BF98230100EA
:103BD000900C0100180C0100181F01003C1F01008F
:103BE000F0B583B004468389012B20D9022104F16A
:103BF00008000BF06CFD054603780E3B012B24D921
:103C00002D780023012B43D8304A02EBC30012F871
:103C10003320954227D1A1894378994225D343681F
:103C20002046984720460BF00FFD03B0F0BD41F24F
:103C30007243274A2749284809F0F9F9404080F3A0
:103C400011884FF0030002DFD0E741F27643204AAB
:103C50002249214809F0EBF9404080F311884FF0E8
:103C6000030002DFCCE70133CCE74FF00003012271
:103C700062F302036FF3C503194A1A48121AC2F31A
:103C8000C90262F38F132A461748FDF719FFC9E7E7
:103C90004FF00006022363F302066FF3C506104BD4
:103CA000104A9B1AC3F3C90363F38F16A7893946D9
:103CB000A068FFF755FCFDF7B3FC0346ADF80060C4
:103CC0003A4629460948FDF7AFFDABE7E02301007E
:103CD000601F0100D01F0100EC1F01000C2001003B
:103CE000900C0100180C0100181F01003C1F01007E
:103CF0002DE9F04782460E464FF0FF324FF0FF337A
:103D000017480BF06EFC044600F1080800214046FD
:103D10000BF089FC00272775204605F0FFF8114DB0
:103D200000EB400005EB8000A0F802A0204605F063
:103D3000F5F800EB400005EB80008760204605F0B9
:103D4000EDF800EB400005EB80056F600321404675
:103D50000BF0A4FCA0F800A086702046BDE8F08718
:103D6000280500203C3E0020F0B587B006461546E9
:103D70000C4661B30122002168460CF08AFA204605
:103D800005F0CCF800EB40002F4B03EB8000C0F8AF
:103D900008D020460BF07EFC21462C480BF047FC57
:103DA0004FF4A0220023684607F0D0FA0746B0B9C6
:103DB000204605F0B3F800EB4000234B13F82070C9
:103DC000FFB9002D3BD02C60002007B0F0BDFFF7FD
:103DD0008FFF04460028CDD16FF06800F5E74FF45F
:103DE000B9731B4A1B491C4809F021F939461B4885
:103DF00009F01DF9404080F311884FF0030002DF05
:103E0000D6E74FF00003022262F302036FF3C5030B
:103E1000134A1449521AC2F3C90262F38F133A4685
:103E200031461148FDF74CFE20460BF00DFC092FE2
:103E300002D06FF00400C8E76FF06E00C5E72046BF
:103E40000BF002FC0020C0E73C3E0020CC0000202C
:103E5000601F01002C200100EC1F01003820010030
:103E6000900C0100180C01005820010010B582B020
:103E7000224BD3F8E4309B6813F0010F0DD101AA57
:103E8000002140F60340FFF76FFF044668B9019830
:103E9000FFF782FC01980BF0D7FB01AA002141F249
:103EA0000300FFF761FF044610B1204602B010BDC9
:103EB0000198FFF703FC01980BF0C6FB01AA002153
:103EC00041F20100FFF750FF04460028EDD10198B0
:103ED000FFF7C2FB01980BF0B7FB01AA002141F2EA
:103EE0000200FFF741FF04460028DED10198FFF7EA
:103EF000D1FB01980BF0A8FBD7E700BF0000002022
:103F000010B582B0324B93F8443013F0400F0AD012
:103F100001AA002142F20300FFF726FF0346B0B1D9
:103F2000184602B010BD4FF00001012363F30201F7
:103F30006FF3C501274B284A9B1AC3F3C90363F3E8
:103F40008F112648FDF7ACFE6FF01203E8E70198E9
:103F5000FFF796FB01980BF077FB1D4B93F844306D
:103F600013F0200F18D01A4B93F8643013F0080F99
:103F70000ED001AA002142F21C00FFF7F5FE034615
:103F80000028CDD10198FFF7A3FB01980BF05CFB53
:103F90000AF0FEF80346C3E7022140F66D40FFF742
:103FA000A7FE044680B1022108300BF077FB012305
:103FB000037000224270214640F66D40FFF7D4FEA8
:103FC00003460028CFD0ABE76FF06803A8E700BF37
:103FD00000000020900C0100180C0100742001006A
:103FE0002DE9F04186B005AA00214FF60140FFF708
:103FF000BBFE002873D1059B9C6803274FF0000689
:1040000067F302066FF3C506514D524BED1AC5F327
:10401000C90565F38F16B4F801804046FFF794FB9D
:104020000146334642464C48FDF74AFD4FF0000634
:1040300067F302066FF3C50665F38F16B4F80380C5
:104040004146B4F80100FFF78BFB01463346424678
:104050004248FDF735FD4FF0000667F302066FF3A7
:10406000C50665F38F1665792846FFF789FB009032
:104070000195A3790293B4F807300393D4F809307B
:1040800004933346052269463548FDF79DFD0598A2
:104090000BF0DAFA05AA00214FF60240FFF764FEA2
:1040A00088BB05988368B3F801302E4CA4F889309A
:1040B0000BF0CAFA94F8893013F0040F20D005AA47
:1040C00000214FF60340FFF74FFE70BB0598836851
:1040D0005A78244B83F888200BF0B6FA10E04FF0A2
:1040E0000001022363F302016FF3C501184B194A63
:1040F0009B1AC3F3C90363F38F111B48FDF7D0FD6F
:1041000006B0BDE8F0814FF00001022363F3020125
:104110006FF3C5010E4B0F4A9B1AC3F3C90363F338
:104120008F111248FDF7BCFDEAE74FF000010223B2
:1041300063F302016FF3C501054B064A9B1AC3F3F3
:10414000C90363F38F110A48FDF7AAFDD8E700BF42
:10415000900C0100180C0100BC200100D8200100C7
:10416000F020010000000020982001002021010023
:104170004C21010038B50446062213490CF003FA1D
:1041800000B938BD062142F20500FFF7B1FD054632
:10419000B8B10622214608300BF086FA00222946E3
:1041A00042F20500FFF7E0FD0028EAD1074B226844
:1041B000C3F83120A288A3F83520012283F83020EB
:1041C000DFE76FF06800DCE731000020000000202E
:1041D00070B584B00446022142F20C00FFF788FD5E
:1041E00078B30546022108300BF058FA012C1DD097
:1041F00000234370047001AE012C14BF002301237F
:1042000005221149304609F0BFFF284604F086FE1A
:1042100000EB40000D4B03EB800046600022294676
:1042200042F20C00FFF7A0FD04B070BDBFF35B8F3E
:10423000074BD3F89830BFF35B8FC3F30023437071
:10424000D8E76FF06800EFE7980000203C3E0020C0
:104250000000002030B587B0054601AA002141F2D8
:104260000900FFF781FDF0B9019B9C680134002330
:104270000293ADF80C30062202A920460CF083F917
:1042800058B1194B93E803000490ADF814100622BE
:1042900004A920460CF077F9C0B901980BF0D4F9C5
:1042A000002007B030BD4FF00001022363F302018C
:1042B0006FF3C5010D4B0E4A9B1AC3F3C90363F399
:1042C0008F110C48FDF7ECFC0020EAE72368C5F8E5
:1042D0000130A388A5F8053000232B7001980BF05E
:1042E000B3F90120DDE700BF300D0100900C0100A3
:1042F000180C0100782101002DE9F04F83B004462D
:10430000884615469946BFF35B8F394BD3F89830F2
:10431000BFF35B8F13F0400F03D00B8913F0040F32
:1043200062D12278931EDBB2012B2FD9FF2A3AD01B
:104330002146002009F084FF0346006800909A8817
:104340009B79ADF804208DF80630C8F800D0294BD1
:104350001B68B3B105F1080630460BF0C8F984B20A
:10436000AF89A5F80C90234BD3F800A0334698F8FA
:10437000072098F905106846D0472B692344AB60A5
:10438000AF811D4B1C68A4B1083C12E0206800906E
:10439000A288A379ADF804208DF80630C3B2023BA1
:1043A0008DF80030D1E700230093CDF80330CCE73F
:1043B0003446CCB105F1080B58460BF098F91FFABA
:1043C00080FAAF89A5F80C90264656F8083B594666
:1043D000404698472A695244AA60AF81002EE7D030
:1043E000A4680CB1083CE4E703B0BDE8F08F00BF5F
:1043F00000000020603E0020583E0020F0B585B04F
:10440000054600F1080630460BF069F9431EDFB29D
:1044100000283ED0AB89082B2AD9092130460BF061
:1044200056F90446037A034493F909308DF80930AC
:1044300001238DF80E3000238DF80F307F238DF887
:104440000A30FF238DF8083000788DF80B0009F052
:1044500065FEADF80C00237A2A4601A9601CFFF71F
:104460004BFF217A013130460BF029F93846CDE770
:104470004FF00001012363F302016FF3C501064B06
:10448000064A9B1AC3F3C90363F38F110448FDF76F
:1044900007FC05B0F0BD00BF900C0100180C010036
:1044A00098210100004870471800002010B50C4604
:1044B000FFF7F8FF0B4B1B78237080B1BFF35B8FC6
:1044C0004369BFF35B8F13F0400F01D0002007E07A
:1044D000002009F09DFE18B90123237000E00020A0
:1044E00010BD00BF0000002030B583B00023ADF840
:1044F00005308DF80000ADF80110ADF8032001285B
:1045000014BF002401240DF105012046FFF7CEFF62
:1045100008B103B030BD072142F20B00FFF7E8FB02
:10452000054670B30722694608300BF0BDF800223B
:10453000294642F20B00FFF717FC0028E9D10120C1
:1045400009F07AFE0028E4D16CB10F4BBFF35B8F0A
:1045500053E8002F42F0800243E800210029F7D100
:10456000BFF35B8FD5E7084BBFF35B8F53E8002F9A
:1045700022F0800243E800210029F7D1BFF35B8FCE
:10458000C7E76FF06800C4E79800002008B5BFF3E4
:104590005B8F0D4BD3F89830BFF35B8F13F0400F58
:1045A00001D0002008BDBFF35B8F074BD3F89830D4
:1045B000BFF35B8FC3F3401013F0200FF2D0002045
:1045C00009F03AFEEEE700BF0000002030B585B0EC
:1045D00004460D4649B100230293CDF80B30072263
:1045E00002A928460BF0CFFFE0B9684609F02CFE7F
:1045F0006846FFF7EFF80028F7DA104AC4EBC40466
:10460000131900981051BDF804109DF806209980E8
:104610009A712DB11A682A609A889B79AA80AB7129
:1046200005B030BD054AC4EBC40413192968115103
:10463000A988AA7999809A71F2E700BF000000204A
:1046400008B5034BD3F8E4301B69984708BD00BF99
:104650000000002038B50022002338480AF0C8FFC7
:10466000044678B3364D4FF0FF324FF0FF3305F17B
:10467000B00006F06BFED5F8C830BBB14FF00001BA
:10468000012363F302016FF3C5012E4B2E4A9B1ADF
:10469000C3F3C90363F38F112C48FDF701FBD5F871
:1046A000C8000AF0D1FF0023C5F8C83020460AF040
:1046B000F1FF234BC3F8C8002046FFF7C1FF0146B6
:1046C00070B938BD41F28543214A2249224808F099
:1046D000AEFC404080F311884FF0030002DFC1E7D9
:1046E0004FF00002012363F302026FF3C502154B82
:1046F00015481B1AC3F3C90363F38F121748FDF75C
:104700005FF90F4D05F1B00006F0F8FD204604F00A
:1047100005FC00EB4000124B03EB800022461F21FA
:104720004088FFF793F8D5F8C8000AF08DFF002302
:10473000C5F8C83020460AF087FFC2E7CC00002049
:1047400000000020900C0100180C0100D82101008D
:10475000601F0100A82D0100EC1F0100B421010021
:104760003C3E002070B504460D4611E0022363F381
:1047700002066FF3C5060E4B0E4A9B1AC3F3C9031C
:1047800063F38F1632460C48FDF71AF91434013DD5
:1047900065B1E168C1F304310129F7D90429E5D1F4
:1047A000237B002BF2D1FFF755FFEFE770BD00BF71
:1047B000900C0100180C0100F421010008B505E07F
:1047C00001211048FFF7CEFF06F0D2FC0D48C36868
:1047D0006FF31033C3604FF0FF324FF0FF3301210E
:1047E00007F05AF80028EBD041F2E343064A0749A4
:1047F000074808F01CFC404080F311884FF003008C
:1048000002DFDDE708010020601F01002C2001000D
:10481000EC1F010010B50446017D012903D1FFF70B
:10482000DFF9002010BD4FF00002012363F3020204
:104830006FF3C502074B08481B1AC3F3C90363F3A0
:104840008F120648FDF7BCF820460AF0FDFE6FF017
:104850001500E7E7900C0100180C01001822010078
:10486000F0B583B00446037D012B31D1A389012B20
:104870003CD9022104F108000AF029FF054603781B
:104880000E3B012B0CD941F6FB03394A39493A4812
:1048900008F0CDFB404080F311884FF0030002DFA9
:1048A0002D780023012B44D8344A02EBC30012F8C0
:1048B0003320954228D1A1894378994226D3436871
:1048C0002046984720460AF0BFFE002003B0F0BD06
:1048D00041F6F703264A2A49274808F0A8FB40403A
:1048E00080F311884FF0030002DFBFE741F6F803C1
:1048F0001F4A2449204808F09AFB404080F3118861
:104900004FF0030002DFB4E70133CBE74FF00003C1
:10491000012262F302036FF3C5031B4A1B48121AFC
:10492000C2F3C90262F38F132A461948FDF7C8F88B
:10493000C8E74FF00006022363F302066FF3C506D3
:10494000114B124A9B1AC3F3C90363F38F16A7894D
:104950003946A068FEF704FEFCF762FE0346ADF898
:1049600000603A4629460B48FCF75EFFAAE700BF05
:10497000601F010050220100EC1F01000024010013
:104980002C220100D01F0100900C0100180C010026
:10499000181F01003C1F01000A4BD3F8E43043B953
:1049A000C3684BB1036953B1064BC3F8E400002060
:1049B00070476FF0770070476FF0150070476FF029
:1049C000150070470000002008B5094BBFF35B8F4E
:1049D00053E8002F42F0020243E800210029F7D1FA
:1049E000BFF35B8F0020FFF7D1FDFFF711F808BD83
:1049F0009800002070B582B00C46054648B30023ED
:104A00000093CDF80330072269460BF0BCFD00B3DC
:104A10002B78012B04D1AB7903F0C003C02B13D04A
:104A20004FF00001012363F302016FF3C501154B41
:104A3000154A9B1AC3F3C90363F38F111348FDF79B
:104A40002FF96FF0150610E02846FEF7C3FE002888
:104A50000EDA84B90E4BD87901280FD0421CDA71D6
:104A6000064622462946FFF7B1FD304602B070BD2A
:104A70006FF07706F9E76FF01506F6E76FF00B06B3
:104A8000F3E700BF900C0100180C01007022010038
:104A90000000002000B583B06846FFF7DBFB064B43
:104AA000D87110B903B05DF804FB002269461046C6
:104AB000FFF78CFDF6E700BF000000202DE9F04174
:104AC00082B0384B93F88A6016F0010612D0074680
:104AD0000D4601AA00214FF60940FFF745F90446AB
:104AE000D0B9019BD3F8088098F80160AE4228BF86
:104AF0002E463BE04FF00001022363F302016FF307
:104B0000C501294B294A9B1AC3F3C90363F38F11CB
:104B10002748FDF7C5F82FE04FF00001022363F3AB
:104B200002016FF3C501204B204A9B1AC3F3C9034E
:104B300063F38F111F48FDF7B3F800261CE0162120
:104B400001FB04F17A18434653F8025FD3F804E0FE
:104B5000D3F808C0D8687D50C2F804E0C2F808C095
:104B6000D0601D6915619B8A93820134A642E6DC00
:104B700001980AF069FD1EB1304602B0BDE8F0812F
:104B80004FF00001022363F302016FF3C501064BEE
:104B9000064A9B1AC3F3C90363F38F110648FDF756
:104BA0007FF8E9E700000020900C0100180C0100DC
:104BB000A0220100CC220100EC22010010B588B037
:104BC000144BDC7934B9012102A8FFF777FF114BB0
:104BD000D871C8B900210846FFF70CFF08B010BD16
:104BE000162302AA03FB04231A68CDF801209B8830
:104BF000ADF8053001238DF80030002269462046CB
:104C0000FFF7E4FC0134E4B2024BDB79A342E7D8BE
:104C10000020E3E70000002010B5FFF727F9044665
:104C200008B1204610BDFFF76BF904460028F8D103
:104C3000244B93F8443013F0200F04D109F07FFA8D
:104C400004460028EDD109F0C2FA04460028E8D154
:104C5000FFF7C6F91B4BDB79FBB11A4BDB79002B55
:104C6000DFD1FFF7ABFF0446D0B91748FFF782FA50
:104C700004460028D5D04FF00001012363F3020160
:104C80006FF3C501114B124A9B1AC3F3C90363F3B7
:104C90008F111048FDF704F8C3E7FFF7FBFEDCE7D0
:104CA0004FF00001012363F302016FF3C501074BCD
:104CB000074A9B1AC3F3C90363F38F110648FCF735
:104CC000EFFFAEE70000002001000020900C010083
:104CD000180C0100382301001823010008B509F061
:104CE000C1FA024B1B6803B1984708BD543E00202F
:104CF00030B589B03F4BD3F8E430002B46D00446A2
:104D00003D4BBFF35B8F53E8002F42F0010143E8B6
:104D100000100028F7D1BFF35B8F12F0010F66D1AE
:104D2000364B1C60364D00220023CDE906230023BC
:104D300004936FF008020392029301930093314BA6
:104D40004FF42072304928460BF0D1FA2F492846FB
:104D50000BF0BCFA274BD3F8E430DB6898470546E4
:104D600040BB002C39D02A4BBFF35B8F53E8002F98
:104D700042F0010143E800100028F7D1BFF35B8F38
:104D800012F0010F2DD0284609B030BD4FF00001C0
:104D9000012363F302016FF3C5011E4B1E4A9B1AE8
:104DA000C3F3C90363F38F111C48FCF779FF6FF05D
:104DB0001205E8E74FF00002012363F302026FF3EC
:104DC000C502144B14495B1AC3F3C90363F38F1272
:104DD00001461348FCF7F4FDD5E709F043FA054610
:104DE000D1E7A3F108010F480BF088F8CBE76FF08B
:104DF0007705C8E70000002098000020543E0020FE
:104E0000643E0020BD470000605C00207423010068
:104E100094000020900C0100180C010058230100A0
:104E20007C230100B058002038B5BFF35B8F444BA2
:104E3000D3F89830BFF35B8F13F0020F70D00446A5
:104E40000D4609F07EF900286DD023781BB109F0DA
:104E5000F9F900286AD03B4BBFF35B8F53E8002F72
:104E600042F0400143E800100028F7D1BFF35B8F08
:104E700012F0400F5DD1BFF35B8F983BD3F89830B1
:104E8000BFF35B8F13F0200F03D0002009F0D4F99B
:104E9000E0B9636813F0010F26D02A4BBFF35B8F94
:104EA00053E8002F42F4807243E800210029F7D133
:104EB000BFF35B8FA389002B3ED1628921892078C3
:104EC000FFF712FBF0B9204B1D6038BD1D4BBFF33F
:104ED0005B8F53E8002F22F0400243E800210029B5
:104EE000F7D1BFF35B8FF0E7164BBFF35B8F53E84F
:104EF000002F22F4807243E800210029F7D1BFF38C
:104F00005B8FD7E70F4BBFF35B8F53E8002F22F087
:104F1000400243E800210029F7D1BFF35B8FD4E7BB
:104F20006FF00A00D1E76FF01500CEE76FF01500C3
:104F3000CBE76FF07700C8E76FF08500C5E700BFEB
:104F40000000002098000020603E002038B5044694
:104F500005480AF046FB054620B1002108300AF05A
:104F600062FB2C75284638BD5005002038B54FF03F
:104F70002003EFF3118283F31188BFF36F8F0E4B81
:104F8000D3F8C8400025C3F8C85082F31188BFF396
:104F90006F8F4CB1012323752946A58104F10800C8
:104FA0000AF041FB204638BD02460B460120FFF7C0
:104FB000CDFF0446F6E700BF0000002010B5A0F1C9
:104FC0000E04012C06D959B90120FFF7BFFF044692
:104FD000204610BD10461946FFF7C8FF0446F7E704
:104FE00006480AF0FEFA04460028F1D000210830F5
:104FF0000AF019FB01232375EAE700BF0005002032
:10500000F8B516461C461B78DFB262789B1A03F08F
:105010000303012B00D1F8BD0546DFF848C001EBC2
:10502000410300EB4000000100EB830003466344B2
:1050300000221946586809F08FF966606278677037
:1050400023789B1A03F00303012BE4D16270C5EBB4
:105050000515044A02EB850204322146304609F068
:105060006BF9D8E75C3F002038B5042515E004EB68
:105070004403990005EB450213010B440A49194406
:1050800004EB85000A1D094B03EBC00009F051F940
:1050900023465C1EE4B2002BE9D12B46013DEDB264
:1050A0000BB10423F5E738BD5C3F0020D83E00205B
:1050B00070B506460D461C4672B10121C9B2627830
:1050C00023789B1A13F003032ED051B3012B4BD03E
:1050D0000132D2B222703EE00AF0C2F808B90121D2
:1050E000ECE72946304603F0DDFDC0B11F4906EB71
:1050F000460305EB4502120102EB83030B44987A49
:1051000006EB460305EB4502120102EB83030B4459
:10511000DB7A984201D00121D0E70021CEE70121BE
:10512000CCE7931CDBB2237021B9E368A0689847F1
:10513000002018E00132D2B2227006EB460205EBE5
:1051400045031B0103EB8202084B1A44043221463B
:10515000606809F0F1F8064B01225A55294630469D
:1051600003F0C6FD002070BD0120FCE75C3F00207D
:10517000583F00204F4B1B5C002B00F099802DE91D
:10518000F04F83B0804605464FF00009494B03F8C5
:1051900000900423CA465F1EFFB2002B7CD0002380
:1051A00001933E46444807EB470305EB45021201D5
:1051B00002EB8303C11801AA4968C05809F0C4F87A
:1051C0008346BBF1000F33D0019B1C785A78A41A98
:1051D00004F00304012C24D0019B5A463946404672
:1051E000FFF70EFF344806EB460305EB45021201BC
:1051F00002EB8303C11801AA4968C05809F0A4F85A
:105200008346012CDDD10FB90028DAD0294B0122C9
:1052100003F808204146404603F06AFD03B0BDE8AC
:10522000F08F013A5A70019BDA6898689047D3E78B
:1052300007EB470305EB4502120102EB83031E4A0D
:105240001344997ADB7A99420BD007EB470305EBBD
:105250004502120102EB8303174A1344D9724FF03F
:10526000010907EB470305EB4502120102EB83033B
:10527000114A1344197A5B7A99420BD007EB470322
:1052800005EB4502120102EB83030B4A13445972EA
:105290004FF0010A3B467EE7B9F1000FBED0BAF1EC
:1052A000000FBBD100224146404603F0DBFCB5E7CE
:1052B000704700BF583F00205C3F0020036A426AED
:1052C00013444362054A1A4405498A4201D9002021
:1052D0007047044A1A444262012070475A2B17FF54
:1052E000592B177FB6562EFE0346416A074A0A44D9
:1052F0000748824208D9074A0A445A620120196ABB
:105300005A6A521A5A6270470020F8E75A2B17FF60
:10531000592B177F4AA9D101F0B5059F9DF8186058
:10532000079D002849D11C46844626482C2303FBB0
:105330000CF300EB030E8EF80810C250481EC0B2EA
:1053400041B100EB400102EB0111002381F82D3047
:105350000146F3E71B4A2C2303FB0C235C725F60BE
:105360000AE007EBC2035D6017F83230342101FB1D
:105370000355F31ADEB21446621ED2B2002CF0D1ED
:10538000EEB9104B2C2202FB0C3C089BCCF82030D1
:10539000099BCCF824300A9BCCF82830FF238CF8EA
:1053A0001D308CF81C300020CCF81800CCF814000C
:1053B0008CF80A008CF80B00F0BD0120FCE70120FE
:1053C000FAE700BF1C40002010B5054B2C2202FB61
:1053D00000335C6A1CB1012203210220A04710BDEA
:1053E0001C4000202DE9F0410646084625492C279F
:1053F00007FB06177C6804EBC00191F8038091F964
:1054000003500135EDB214F83040AC4200D800250D
:105410004C78AC4233D0D1F804E04FF0340C0CFBA4
:1054200008FC0EEB0C044FF004080EF80C806270C0
:105430006360069BA360079BE360089B23610A9B54
:10544000A361BDF82430A3820F9B63620B9BE361D1
:105450000C9B23620223A3620D9BE3620E9B2363DA
:10546000CD70084B2C2202FB06335D6A1B6A9847FD
:105470003B4600224146A847A06ABDE8F0810120D2
:10548000FBE700BF1C4000202DE9F041054608461F
:105490001B492C2606FB0516776807EBC00191F81F
:1054A000038091F903400134E4B217F83070A74249
:1054B00000D800244F78A74220D0D1F804E04FF064
:1054C000340C0CFB08FC0EEB0C074FF006080EF832
:1054D0000C807A700222BA62FB62069B3B63CC703E
:1054E000074B2C2202FB05335C6A1B6A9847334644
:1054F00000220421A047B86ABDE8F0810120FBE743
:105500001C4000202DE9F04F8DB0C37F0393002B8A
:1055100040F0458381460123837743690993837A69
:10552000C27A934226D05BB20133DBB2022B1FD08A
:1055300089F80A30023309EB83035B680293099A06
:10554000D31823F07F43C9F814300123019399F84D
:105550001D300893D9F800B0D9F804300B9399F8AE
:105560000930039A0492FF220092CDF818B001E1AD
:10557000039BDDE7039B019300230293E7E7039B73
:1055800093E06A68002A40F0AB80AA68002A40F0E5
:10559000A780EA68002A40F0A3802A69002A40F028
:1055A0009F806A6932F07F4240F09A80012128464C
:1055B00008F0E2FF66E0D9F81480064602F086FEA5
:1055C0000790414609F0AAF8029B1844864207D981
:1055D000361A636843B3AB8A33B3013BAB820DE049
:1055E000861B6069064466610026F2E72046FFF7E5
:1055F0007BFE3844361AE38B013BE3836768B7428E
:1056000003D2E28BAB8A9A42F0D8E28BAB8A9A4201
:1056100009D267682046FFF751FE07443E44E38BFA
:105620000133E383F1E7A38368680644A660AA68B0
:10563000636913446361A36A2BB11A681AB16A687B
:10564000A968521A5A60079A4146204609F022F981
:10565000EB68A2691344A3612A6993426DD99B1A2E
:10566000A361AB7D03B1E370069B19460A9A009BC8
:105670008B546B7800936378013363700021284664
:1056800008F07AFF9AF802709AF803309F4270D0BF
:10569000342606FB07F60BEB06057BB20133DBB2C3
:1056A0009AF8002093423FF46AAF8AF802306C788F
:1056B00004EB440423010A93069B03EB04141BF838
:1056C0000620042ADED96378A1785B1ADBB2072AA8
:1056D0003FF66CAF002B3FF469AF052A3FF451AFA2
:1056E000012B3BD16978484608F0B1FEA0601BF859
:1056F0000630052B3FF45FAFA378637099F81C2048
:105700006B789A42BAD1FF2389F81C301BF8063017
:10571000072B15D16868D9F81430C21A12F4000F9B
:1057200011D1194608F0FAFF029B1844D9F8183035
:105730008342A3D9C9F81800A0E70023A36190E72A
:1057400002F0C4FDE7E70146184608F0E7FF029BB8
:10575000834201D9181AE9E70020E7E7D9F8244085
:105760004B46012204210846A0478AF80270012313
:105770000493059B5A1ED2B2059233B10B9B059A36
:1057800003EBC20ADAF804B07CE7069399F81D30FF
:10579000089A934212D001230A93019B002B00F038
:1057A000578102F093FD099908F0B8FF0790D9F8E6
:1057B00000B0DDF80880002303936AE0069B0A939B
:1057C000EBE7A3EB0803A36099F81D30089A934216
:1057D00001D0019B0A93D9F800A0D9F804300593B1
:1057E00099F809B0009FCDF80C9016E10021C9B2DC
:1057F000D9F8182093421DD2D31AC9F81830A369DA
:105800002BB16378A2789B1ADBB2022B19D000234C
:10581000A360059B1BF8033089F81D306368EBB962
:10582000A36A13B11B7A012B18D0A378637030E000
:105830000121DCE7FF2389F81C300023C9F8183068
:10584000DDE70029E3D1A36A13B11B7A012BDED077
:1058500089F81C70A369C9F81830D8E7A36A002B2F
:1058600035D01B7A012B32D1C4F80880A37863703D
:10587000099B039A9A18D9F81410204609F00AF8DF
:10588000059B1A46009B0BF8023063780133637066
:10589000009799F81D70FF2F96D007EB470423015E
:1058A00005930BEB0414A36843458AD8A8EB0308BF
:1058B000039A1A440392079AD21A079294F82C205A
:1058C000002A93D0E28B002AB2D100218FE7E38B2C
:1058D0006BB9A68B731C002503F1FF3A5BB16068BE
:1058E00005442046FFF7EAFC05445346F4E7A37855
:1058F00063700026EEE794F82C304BB14FF0000AAD
:10590000A5605644B4F81EA00AFA86F6E683AFE70F
:105910004FF0000A0B96079EAE420AD96068054414
:105920002046FFF7CBFC05440AF1010A1FFA8AFA68
:10593000F2E70B9EE4E7342303FB06F3009AD51845
:105940000136F6B298F80020964239D095F80190C9
:1059500009EB49040AEB0414009AD35C042B3ED1F2
:105960006378A2789B1A13F0FF0F2BD1039B596920
:10597000AA8A4FF6FF739A4229D0069B84F82C30EE
:105980006B6AA362EB6863602B692362AB8A4FF694
:10599000FF7293421DD0A383AB69A361EB69E360FF
:1059A0002B6A2361AB68A360002363616A682046A9
:1059B00008F070FF00236362E3830123E3701BE0C0
:1059C000069EC3E70121284608F0D6FD07E0019BAB
:1059D000D4E70023DFE70021284608F0CDFDFF2FA4
:1059E00017D0FF2FA7D007EB470423010AEB0414BD
:1059F000B9461AF803700025FF232370494603981F
:105A000008F0E4FC94F9023001336370002DE2D118
:105A1000E5E798F802309E42E3D15B460BF1FF3B8D
:105A20005FFA8BFB43B1059B03EBCB08D8F804303E
:105A3000009398F80160D2E7DDF80C90029948468F
:105A400008F0A5FD002800F09180019B0A938DE0ED
:105A5000D9F800A0D9F80430039399F809B0009F51
:105A6000CDF8089071E0342303FB06F3009AD518B3
:105A70000136F6B298F80020964239D095F8019098
:105A800009EB49040AEB0414009AD35C042B3ED1C1
:105A90006378A2789B1A13F0FF0F2BD1029B5969F0
:105AA000AA8A4FF6FF739A4229D0019B84F82C30C2
:105AB0006B6AA362EB6863602B692362AB8A4FF663
:105AC000FF7293421DD0A383AB69A361EB69E360CE
:105AD0002B6A2361AB68A360002363616A68204678
