:10000000602800200D1D0000A79E00003D1D00007F
:100010003D1D00003D1D00003D1D000000000000D2
:10002000000000000000000000000000AD1A000009
:100030003D1D000000000000651A0000859E0000C4
:10004000CD1C000099A60000CD1C0000CD1C0000B6
:10005000CD1C0000CD1C0000CD1C0000CD1C0000FC
:10006000CD1C0000CD1C0000CD1C0000CD1C0000EC
:10007000CD1C0000CD1C0000CD1C0000CD1C0000DC
:10008000CD1C0000CD1C0000CD1C0000CD1C0000CC
:10009000CD1C0000CD1C0000CD1C0000CD1C0000BC
:1000A000CD1C0000CD1C0000CD1C0000CD1C0000AC
:1000B000CD1C0000CD1C0000CD1C0000CD1C00009C
:1000C000CD1C0000CD1C0000CD1C0000CD1C00008C
:1000D000CD1C0000CD1C0000CD1C0000CD1C00007C
:1000E000CD1C0000CD1C0000CD1C0000CD1C00006C
:1000F000CD1C0000CD1C0000CD1C0000CD1C00005C
:1001000053B94AB9002908BF00281CBF4FF0FF317E
:100110004FF0FF3000F06EB9ADF1080C6DE904CE80
:1001200000F006F8DDF804E0DDE9022304B07047D2
:100130002DE9F047089D0E4604468C46002B40F002
:1001400081808A42174645D9B2FA82F24AB1C2F199
:10015000200106FA02F320FA01F1974041EA030C6C
:1001600094404FEA174E230CBCFBFEF6B9B20EFBCF
:1001700016CC43EA0C4306FB01F0984209D9FB1860
:1001800006F1FF3C80F01581984240F21281023E58
:100190003B441B1AA4B2B3FBFEF00EFB103344EA3F
:1001A000034400FB01F1A14209D93C1900F1FF33DE
:1001B00080F00181A14240F2FE8002383C44641A82
:1001C00040EA064000211DB1D4400023C5E90043A8
:1001D000BDE8F08702B9FFDEB2FA82F2002A4FD101
:1001E000CB1B4FEA174E1FFA87F80121B3FBFEFC29
:1001F000260C0EFB1C3346EA034608FB0CF3B34205
:1002000007D9BE190CF1FF3002D2B34200F2EB80E5
:100210008446F61AA3B2B6FBFEF00EFB106643EA64
:10022000064408FB00F8A04507D93C1900F1FF334C
:1002300002D2A04500F2D2801846A4EB080440EA9E
:100240000C40C0E78B4208D9002D00F0AF800021A0
:10025000C5E900060846BDE8F087B3FA83F1002936
:1002600049D1B34202D3824200F2BB80841A66EBCA
:10027000030301209C46002DAAD0C5E9004CA7E746
:10028000C2F120039740D8409140DE404FEA174E1C
:1002900008434FEA104CB6FBFEF11FFA87F80EFB3D
:1002A00011664CEA064601FB08F3B34204FA02F475
:1002B00009D9BE1901F1FF3C80F08E80B34240F2B3
:1002C0008B8002393E44F31A86B2B3FBFEF00EFB7C
:1002D000103346EA034600FB08F3B34207D9BE19C0
:1002E00000F1FF3C74D2B34272D902383E44F31A93
:1002F00040EA01417AE7C1F1200703FA01F422FA4A
:1003000007F31C4320FA07F906FA01F34FEA144CED
:10031000FE4049EA03094FEA1943B6FBFCFE1FFA07
:1003200084F80CFB1E6643EA06460EFB08FAB2454B
:1003300002FA01F200FA01F308D9A6190EF1FF3012
:1003400048D2B24546D9AEF1020E2644A6EB0A06C3
:100350001FFA89F9B6FBFCF00CFB106649EA064669
:1003600000FB08F8B04507D9A61900F1FF3C2DD2D3
:10037000B0452BD90238264440EA0E40A6EB0806C9
:10038000A0FB02894E45C446CE4618D315D075B39E
:10039000B3EB0C0266EB0E0606FA07F722FA01F33E
:1003A000CE401F43C5E90076002111E729462846C3
:1003B0000EE76646EDE6184601E74345E7D2B8EB9F
:1003C000020C69EB04040138A646E0E76046D3E777
:1003D00060468CE78646B9E7614674E702383C44DC
:1003E0002BE7084647E7ACF1020C3E4411E72946EB
:1003F000EEE600BF704700BF2DE9F04F8DB002233D
:100400000B9330B905F0CEFA064630460DB0BDE884
:10041000F08F654F97F8C86016F001063C4601D092
:100420000C26F2E797F8269097F87680272309FBA9
:100430000339314617F80900C0F3801003FB087830
:1004400004F020F907EB090505F1020B014682468D
:10045000062208F17708584609F06CFD062251463D
:1004600008F1020009F066FD17F809305B066DD44B
:1004700094F824300121C3F302030DF12B008DF811
:100480002B3009F079FE0028CAD017F809106D78D2
:1004900001F00F01022900F1FF325FD11035ED00AC
:1004A000684300F5AA70642505FB020094F820302B
:1004B0003E49E461002767F3000384F820303123CC
:1004C0002360C4E9057736A3D3E900236760A760FA
:1004D000A0FB0101FFF714FEE060B4F8CA800AF047
:1004E00070F8E368324A03F2471111600992314A09
:1004F000CDE90642304A05463048CDE904324FF690
:10050000FF73CDE90273A8FB000191230DF12C09C3
:1005100003FB081122A3D3E90023CDF82090FFF7B5
:10052000EFFD0321CDE900702B460222384603F08F
:10053000D9FF494604F0D0FE00287FF471AF94F84B
:10054000C83043F0010384F8C8305EE706215846FE
:1005500009F0E6FD00288BD1122656E7012998F80C
:10056000013017D0DB00803371B9103503F52773E4
:10057000ED0005F59A70983302FB00F71D4405F075
:100580009DFA2844384491E70629EED010254FF40F
:10059000AA73EDE716254FF42D73E9E7AFF300805A
:1005A0008D49FD1A07000000800F002000CA9A3B09
:1005B0004C100020CD52000081560000002AE78434
:1005C00070B5064688B028B101460F4808F0CCFD4A
:1005D00008B070BD0D4D0E4808F0C6FD0FCD03AC40
:1005E0000FC42B682360012300933146094B324628
:1005F00003A809F032FD014608B10748E6E70748BD
:1006000008F0B2FDE4E700BFA4BA000040B8000063
:10061000D4BA000098B80000F4BA000021BB000072
:1006200010B5194808F0A0FD032005F02DFA38B1E7
:10063000164808F099FDBDE81040154808F094BD33
:100640000A2005F02FFA08B11248F2E71248837920
:1006500063F03F03837102F043FD014618B10F4878
:1006600008F082FDE7E70E4803F00EF8014648B9AE
:100670000C4C204608F078FD00214FF4004008F0B3
:10068000DFF9F6E70848EBE731BB000042BB0000AA
:1006900088BB00005FBB00003C030020A0BB000043
:1006A000C1050000E4BB0000BDBB00000B680133C6
:1006B0000B60014B1B681847E80000202DE9F04F44
:1006C00085B09B460E9CDFF89090012CB8BF0124AA
:1006D000012B0CBF30232023154606468A46029381
:1006E00001274FF00A080022B5FBF9F301930AB97C
:1006F000A9451FD8019B514603F13000B04701378F
:100700000122019B08F1FF38B8F1010F09FB1355D5
:100710004FF00A03B9FBF3F9E6D1514605F1300079
:10072000B047BBF1030F02D1E41B002C0EDC05B077
:10073000BDE8F08F4445E4DBBBF1020FE1D802983D
:1007400003925146B0470137039ADAE75146202019
:10075000B047013CE9E700BF00CA9A3B014B186073
:10076000704700BFE80000202DE9F04F8DB01C4617
:100770000027531E05468B4603934FF0FF39B846BA
:10078000002605E06EB9252800F071815946A8477A
:10079000039B13F8010F03930028F3D10DB0BDE8BC
:1007A000F08F7A280AD8622810D8302854D045D83B
:1007B000252800F05A812D2800F05F815946252018
:1007C000A847039B18785946A847D9E7A0F16303C7
:1007D000172BF3D801A252F823F000BF630A0000E0
:1007E000A7080000BD070000BD070000BD0700000E
:1007F00089080000A7080000BD070000BD07000031
:1008000089080000BD070000BD070000BD0700000B
:1008100049090000BD070000BD070000330A0000C1
:10082000BD07000017090000BD070000BD0700005C
:1008300045080000BD0700008908000039281AD9C2
:100840005828BBD1039B1B78702B40F0888054F84C
:10085000043B0693002290E0B9F1000F0EDAB8F1E4
:10086000000F00F00D81A0F13009B8F1000F08BFB2
:100870004FF002088CE7B9F1000FF4DB0A2303FB09
:100880000909A9F13009F0E7682803D1682F06D1DA
:1008900048277DE76C2802D16C2F00F0F480002FF0
:1008A0008CD1074674E77A2F02D154F8046B21E00B
:1008B0006C2FFAD04C2FF8D1073424F00704F4E859
:1008C0000223CDE90423049B13F10041059B089109
:1008D00043F100010991DDE9082300214FF0FF30C9
:1008E000994208BF904204D25946284608F01BFCA2
:1008F00046E7049E002E05DA59462D20A847764289
:1009000009F1FF39CDF80090434632465946284652
:10091000FFF7D4FE34E77A2F02D154F8042B0FE00E
:100920006C2FFAD04C2FF8D1073424F00704F4E8E8
:10093000022300214FF0FF30994208BF9042D3D3E9
:10094000CDF800904346E1E759463020A847594684
:100950007820A8474FF008094FF0010872E76C2F84
:100960003FF475AF4C2F7FF472AFE31D23F0070304
:100970001C4654F8082B06925A6800211023049153
:1009800007914FF0400AAAF1040A0699CAF1200E15
:10099000AAF1200C21FA0AF002FA0EFE40EA0E003B
:1009A00022FA0CFC40EA0C0010F00F0007D1079966
:1009B00011B9BAF1000F25D14FF0300C05E009282C
:1009C0008CBF4FF0570C4FF0300C6044594640B28A
:1009D0000A920793A847049B0A9A01330493079B42
:1009E000BAF1000F23D1B8F1030F7FF4C9AE049B15
:1009F000C3EB4906002E7FF7C3AE59462020A84717
:100A0000013EF7E7591E99450A9107DBB8F1010F3E
:100A100006D10B9259463020A8470B9A0A9BB2E7A1
:100A2000B8F1020FFAD10B9259462020F4E707964D
:100A3000A9E754F8046BB24653461AF8010B68B99B
:100A4000B8F1030F21D19E1BA9EB0606002E7FF7FC
:100A500097AE59462020A847013EF7E75946A847D8
:100A6000EAE754F8040B5946AEE65946ACE6374679
:100A7000B0464FF0FF3901268AE64FF0030887E6BB
:100A80004FF0010884E64C2782E6064680E600BF68
:100A900007B50B46002102460191034801A9FFF763
:100AA00063FE03B05DF804FBAD06000030B585B011
:100AB000CDE90101044600250548039501A9FFF78A
:100AC00053FEDDE902309842B8BF255405B030BD71
:100AD0004391000030B51049104889B000220AF057
:100AE000DFFB0F4D0F4900220023CDE90623002430
:100AF0000E23CDE90334CDE901440B4B00944FF4B0
:100B00004072284608F050F8084928460AF056FB7B
:100B1000204609B030BD00BF310B0000A00400200A
:100B20000805002020190020490F0000FCBB000030
:100B3000014807F0ABBF00BFB403002008B500F0C8
:100B400065FA094808F0ADFD042328220749084842
:100B50000AF016F9074B084A1A604FF40040BDE846
:100B6000084000F097BC00BFE4040020A03500203E
:100B7000EC040020EC000020E1960000F8B50F4BDB
:100B8000BFF35B8F002553E8007F43E80052002A43
:100B9000F9D1BFF35B8F0A4C0A4E361B3611B542B2
:100BA00000DBF8BD63685B792BB12368DB6813B1A8
:100BB00039462046984701351034F0E7DC04002020
:100BC00018B8000038B80000064BBFF35B8F53E83D
:100BD000002F013243E800210029F8D1BFF35B8FD9
:100BE000704700BFDC040020044A054B9B1AB1EBA0
:100BF000D30F34BF52F831000020704750B70000C7
:100C000018B80000094B4268C31A1B11013310B514
:100C100013714368064C196001225A71227812B987
:100C2000044807F033FF0123237010BD18B80000FB
:100C30000E140020B403002070B5114BBFF35B8F7E
:100C400053E8005F6A1C43E800210029F8D1BFF394
:100C50005B8F2DB90B4C0C4E361B3611B54200DBA9
:100C600070BD237B43B123685B6903B198470422BD
:100C700000212046FFF7C6FF01351034EEE700BF24
:100C8000E004002018B8000038B80000164B984265
:100C900037B5044602D3154B984220D3144800229E
:100CA000002301A907F054FA0546D8B90122019B97
:100CB000BFF35B8F53E8001F43E800200028F9D101
:100CC000BFF35B8F019821461F22043009F0FCF826
:100CD000019C7E2384F8233084F824500434204679
:100CE00003B030BD034CFAE750B50000B4D20000A9
:100CF000EC04002004BC000048B1054B984205D329
:100D0000A03398422CBF002001207047002070477C
:100D1000A03500202DE9F04F4C4B1B7885B00446E0
:100D200003B960B34FF02003EFF3118683F311880A
:100D3000BFF36F8F464808F0C4FC054686F3118860
:100D4000BFF36F8F78B1BFF35B8F424B53E8002F37
:100D5000013A43E800210029F8D1BFF35B8F94B139
:100D6000284608F0C5FD24B93B4B1B680BB1FFF7C3
:100D700005FF374808F0A3FC041E18BF01242046D5
:100D800005B0BDE8F08F354B1B78CBB92B7ADB076C
:100D900016D408F0C0FD8046284608F087FD0146BD
:100DA000404608F0A1FC2E4F2E4BDFF8D4B0DB1BE1
:100DB000DB0803932C4BDB1B06464FEAD30A36B9FC
:100DC0002A4E2B4FBF1B3F114FF000083AE0B6FAF6
:100DD00086F1C1F11F094946284608F06AFD254BF6
:100DE0009842014602D3244B98421AD30846FFF793
:100DF00083FF0246A8B9214B994212D06B89039810
:100E00009909B0EB931F4FEA8A1343F0010388BF9F
:100E100057F83120ADF8003049464346584608F0AF
:100E2000BDFC012101FA09F126EA0106C7E7736852
:100E30005B7923B1336829461B683046984708F12F
:100E400001081036B845F2DB8AE700BF0E14002017
:100E5000E4040020D8040020DC0400200F1400204B
:100E600050B7000018B80000E0B7000018B8000044
:100E700038B8000050B50000B4D2000004BC000037
:100E80001EBC0000294B73B51B684181044698477E
:100E9000274DE060BFF35B8F55E8003F013345E825
:100EA0000032002AF8D1BFF35B8F4FF02003EFF33D
:100EB000118683F31188BFF36F8F1E48214608F017
:100EC000F4FB86F31188BFF36F8F1B4B1B7883B144
:100ED0004FF02003EFF3118483F31188BFF36F8F7A
:100EE0000020FFF717FF84F31188BFF36F8F02B064
:100EF00070BD124A2B681268002AF8D0012B0AD163
:100F000000220023CDE900230D484FF400420023C6
:100F100008F046F8EBE70A2BE9D109480AF0CCF9CA
:100F2000084802B0BDE8704007F0B0BDEC000020FA
:100F3000D8040020E40400200F1400207C050020C9
:100F4000A0040020B403002010B5FFF775FE07F0E1
:100F500097FD0C4B186030B10B4B1B68092B02DD61
:100F60000A4807F093FD094C0020FFF7D3FE002844
:100F7000FAD14FF0FF324FF0FF33204607F0ACFDBF
:100F8000F2E700BF7C050020D8040020B403002055
:100F9000F8B50E4F3D7875B90D4C0E4EFFF74CFE6F
:100FA000361B3611B54207DB0020FFF7B3FE0028E1
:100FB000FAD101233B70F8BD63685B791BB12368EC
:100FC00020461B69984701351034EBE70F140020C9
:100FD00018B8000038B8000007B504380190BFF316
:100FE0005B8F50E8003F5A1E40E800210029F8D1ED
:100FF000BFF35B8F012B03D1034801A907F0DAF897
:1010000003B05DF804FB00BFEC040020202302497C
:1010100002481A4609F0B4BE403600208005002080
:1010200037B50023094D01930120FFF773FE0446F5
:10103000FFF7CAFD0022002301A9284607F088F81F
:1010400008B1002CF0D1019803B030BD800500201C
:1010500007B50023019307480022002301A907F0E8
:1010600077F810B1FFF7DCFF0190019803B05DF84D
:1010700004FB00BF80050020F0B5037A457A85B0F7
:101080002D090190D8071CD4DDB100242646019813
:10109000314608F00EFC0746FFF72EFE70B134B95A
:1010A000019B2946186908F01FFB044648B124FA41
:1010B00006F3D90702D53846FFF78EFF0136AE4258
:1010C000E5D3019B1A7A920704D55B69084C039318
:1010D000039B2BB9064801A907F06CF805B0F0BDD9
:1010E0001D6803A9204607F065F80395F0E700BFE7
:1010F000800500200EB403B503AB014653F8042B62
:1011000004480193FFF730FB002002B05DF804EBC8
:1011100003B07047BF9C00002DE9F04F85B011F07F
:10112000020490469DF8387006461A4601F00109FF
:1011300001F0080507D011F0440F37D13249FFF70D
:10114000D9FF01460C46B9F1000F0AD02F4B3049A8
:1011500053F827202F4B3046002A08BF1A46FFF7C6
:10116000C9FF3DB12C4B2D4953F827203046FFF7DE
:10117000C1FF0546B8F1000F43D0012303FA07F77A
:10118000274B17F0100F274F18BF1F46BDF8401010
:101190009DF83C00FFF728FD394602463046FFF730
:1011A000A9FF2844204405B0BDE8F08F1E4B196804
:1011B0000029C7D01D4B4FF4616E1B68B2FBF3F3DF
:1011C0004FF47A7CB3FBF1F4B4FBFEF20EFB124E4B
:1011D00001FB14340CFB04F44FF03C0AB4FBF1FBAC
:1011E00001FB1B440CFB04F4BEFBFAF3B4FBF1F16E
:1011F000CDE901B10AFB13E100910D49FFF77AFF38
:101200009FE7084FC2E700BF6FBC0000A0B8000016
:101210006AC5000061BC0000B4B8000094BC0000C6
:101220006BBC000066BC00009C050020A0050020EF
:1012300078BC000038B50C46E107054603D5084ADE
:101240000849FFF757FFE20608D4A30628464CBF1B
:1012500005490649BDE83840FFF74CBF38BD00BF1F
:1012600061BC00006AC50000ECBB0000EBBB0000E5
:101270002DE9F0471D46089B1746DA0604460E4640
:1012800005D499064CBF2A492A49FFF733FFDFF8F6
:10129000AC904FF00008A8452ADBDFF8A480DFF807
:1012A000A490DFF898A00025BD422FD2725D494678
:1012B0002046FFF71FFF0135102D20D11E49DFF812
:1012C0007C80DFF884902046FFF714FF0025AF42B2
:1012D00028D9725DA2F120035F2B28BF2E22494638
:1012E0002046FFF707FF0135102D14D1BDE8F08728
:1012F00049462046FFF7FEFE08F10108CBE76A07E2
:10130000D2D151462046FFF7F5FECDE741462046B3
:10131000FFF7F0FECFE76B07D9D141462046FFF734
:10132000E9FED4E741462046FFF7E4FEDBE700BFD5
:10133000ECBB0000EBBB0000A4BC0000A2BC0000A2
:10134000A0BC00009ABC0000A6BC00002DE9F0473C
:101350008B7A13F0070817468AB00A7A05460E46BC
:1013600020D04989C3F3C2038909D243CDE9008360
:101370000291F36802F001023946FFF7CDFE814683
:10138000347AE44314F001040ED02946304608F0C4
:101390002CFBB8F1000F2BD0424639462846FFF708
:1013A00049FF25E0C146EBE7B8F1000F26D12746FB
:1013B000EB68069306AA3B46A968304608F001FB95
:1013C000069A6B681A603AB1AB68134413F8014C83
:1013D000A4F10A035C425C41284608F063FC069BCA
:1013E0001F44002BE4D11CB113492846FFF782FEAD
:1013F000284608F057FC0AB0BDE8F087304608F0F0
:101400008AFA0E4902462846FFF774FE4FF0100A8A
:1014100005AA234606A93046CDF814A008F0D1FA53
:10142000059A002AB8D04B46009706A92846FFF730
:101430001FFF059B1C44EBE7A9BC00006AC5000028
:1014400073B5D0E900435D680F4A42F20F738B42D7
:1014500028BF0B466846052107F093FE2B4606463B
:101460000A4920460B2208F0B3FA2B463246694659
:10147000204608F0ADFA06492B461B22204608F00C
:10148000A7FA02B070BD00BF8BC90000E3BC00002A
:10149000C7BC0000084A10B50123084C13600021A6
:1014A000A04204D801B11360054B186010BD40087C
:1014B0005B000121F4E700BFA005002040420F00BF
:1014C0009C050020014808F0EDBB00BFE0B800001B
:1014D0000148FFF7B5BF00BFE0B8000008B50348FA
:1014E00006F094FC024B586008BD00BFEFBC000042
:1014F000AC05002010B508460C4608F0CAF90548AE
:1015000021460F22FFF722FF2046BDE8104008F0D9
:10151000EFB900BFE0B80000014B01221A7070471C
:101520002114002008B5034808F0BCFB024B01223F
:101530001A7008BD08B90000221400200148FFF706
:101540007FBF00BF08B9000010B508460C4608F080
:10155000A0F9054821460F22FFF7F8FE2046BDE816
:10156000104008F0C5B900BF08B90000054B1B7852
:101570001BB141F2883009F01FBEA420002107F002
:101580005FBA00BF221400202DE9F84FDFF89090D9
:10159000DFF890B007460E460424CA4699F800309A
:1015A00033B94FF0FF324FF0FF33584606F02CFEB0
:1015B00032463946002000F0E5F99AF800308046BE
:1015C00013B9584606F098FE144DB8F1000F18D024
:1015D00001232B709AF8003033B93046BDE8F88FFC
:1015E0005CB92C704FF0FF34002000F017FA00288F
:1015F000F3D02B78002BF3D1EFE7013CFFF7B6FFD8
:10160000F2E72B7813B1013C04D12C702B78002B1E
:10161000C4D1E2E7FFF7AAFFF8E700BF21140020DA
:1016200022140020F803002010B50748074C06F0EC
:10163000EDFB074B1860204600F096FE2046FFF7B2
:101640008DF8002010BD00BFEFBC00005516000053
:10165000CC0500200A2838B5074D044604D1286877
:1016600083680D215B68984728688368E1B25B68EE
:101670009847204638BD00BFCC050020F8B5124E73
:10168000F3680C2404FB00340123054663724FF019
:101690002003EFF3118183F31188BFF36F8F236869
:1016A0002BB160681A682260834208BF626081F3D0
:1016B0001188BFF36F8F03B9F8BDD3E901722946D2
:1016C0003046B847E3E700BF44030020154B07B599
:1016D0001A6882B14FF08042D2F80423D1070AD5AC
:1016E00000221A601B680093009B0F4BDB68587A3E
:1016F00008B9FFF7C3FF0D4B1A6882B14FF0804263
:10170000D2F8042392070AD500221A601B680193BD
:10171000019B012003B05DF804EBFFF7AFBF03B0FE
:101720005DF804FB00010040440300200401004078
:10173000821C084B22F07F42C3F84025D3F80425D1
:10174000904200D17047D3F80405821C22F07F42FA
:10175000F2E700BF00100140044B002282B01A6083
:101760001B680193019B02B0704700BF401101400C
:1017700008B5FFF7F1FF074B074AD3F84005136898
:10178000C01A20F07F4003441360BDE8084007F012
:1017900073BB00BF00100140E805002038B51448B5
:1017A00006F034FB00B38368124D1B68012100244E
:1017B0009847C5F80845FFF7CFFF0F4B4FF40032AD
:1017C000C3F880214FF48033C5F804332246012149
:1017D000112000F0ADF9112000F078F9074A01233B
:1017E000136020462B6038BD4FF0FF30FBE700BF91
:1017F0001DBD00000010014000E100E008100140A4
:1018000070B52A4B2A4C1968D4F80425294D521A70
:10181000B0F1FF3F08BF284622F07F43120234D4C4
:10182000013820EAE070A842A8BF284601334FF4EF
:1018300080361844C4F80863A84294BF0D184D19A7
:10184000D4F80405D4F84015FFF786FF091A21F0F3
:101850007F4120F07F430129C4F84035C4F8446338
:1018600004D10F2009F0A8FCFFF776FF124B4FF4CC
:101870000032C3F88021D4F804052B1A23F07F43EB
:10188000012B04D1FFF754FF0BE00020CEE725F039
:101890007F43C4F84035D4F804052D1A023D2B02CD
:1018A000F0D44FF48033C4F8043370BDE805002051
:1018B00000100140FFFF7F0000E100E04FF0200238
:1018C000EFF3118382F31188BFF36F8F064AD2F8CA
:1018D0000405064A1268801A20F07F4083F31188BD
:1018E000BFF36F8F704700BF00100140E805002074
:1018F0004FF02003EFF3118283F31188BFF36F8F52
:101900000649074B0868D3F8043582F31188BFF302
:101910006F8F1B1A23F07F4318447047E80500209F
:101920000010014010B5114C114AA2610323C4E913
:101930000433104BE36122664FF480630E4A0F4973
:101940002362626600231022E01DA3626362E362E9
:101950002367E3666367A26608F0ACFA084920468D
:1019600008F0A8FA2023A37110BD00BFEC050020E9
:1019700047BD0000331400202314002050BD000098
:1019800054BD00002DE9F84F234F4FF0180B1446BB
:101990000BFB00720646936A556AAB42884634D800
:1019A000D2F820A0AAEB050909F1FF32944211D820
:1019B0004FF0180906FB09933B44224658684146FC
:1019C000284408F0B7FA09FB06762C44746201201B
:1019D000BDE8F88F13449C421BD800FB0BBBBB44F3
:1019E0004A46DBF804002C44284408F0A3FAB4EB80
:1019F0000A0406D0DBF80400224608EB090108F0CF
:101A000099FA182000FB0676E0E7013B5B1BA34236
:101A1000CED20020DCE700BFEC050020034B1822EB
:101A200002FB00339A6A586A801A7047EC0500205E
:101A3000094A0A499368096819670949D8664B68D1
:101A400043F080534B60002383F31188BFF36F8F03
:101A50009368186F704700BF401300208CBA0000D5
:101A600000ED00E00F498A684FF030001044EFF3BA
:101A7000098C80E8F01F202080F31188BFF36F8F5E
:101A8000094F4FF000664A6A8A603E60D06E0023BC
:101A9000D36680F3118802F1300090E8F01F8CF3D8
:101AA000098870474013002004ED00E01EF0040F89
:101AB0000CBFEFF30880EFF30980816911F8021C75
:101AC0000229FFD001B508F0EAF901BD43B2002BAD
:101AD00008DB012200F01F0002FA00F05B09024A55
:101AE00042F82300704700BF00E100E043B2002B42
:101AF0000DDB01225B0900F01F0002FA00F0203329
:101B0000034A42F82300BFF34F8FBFF36F8F704734
:101B100000E100E0054B420900F01F0053F82220CD
:101B2000012303FA00F01040704700BF00E100E01D
:101B300043B2002BA8BF03F1604301F10101B8BF1C
:101B4000064B4FEA4111ACBF03F5614300F00F00B3
:101B5000C9B2B4BF195483F80013704714ED00E004
:101B600008B572B6044B186A18B100221A6209F05F
:101B700080F862B608BD00BF40130020C0E918120B
:101B80000A44203A22F0070208491360009B536080
:101B9000019B9360029BD3604FF08073D36121F06F
:101BA0000101002391610265C36670479D910000A9
:101BB000F8B506460C4617461D4600F00DFB094BCE
:101BC0003C4424F007049E60284684F309880021E1
:101BD00063B681F31188BFF36F8F0022002307F0F3
:101BE000DDFA00BF40130020014910220A6070474F
:101BF00010ED00E072B6404080F31188BFF36F8FA4
:101C0000BFF34F8F30BF62B6BFF36F8F704700BF17
:101C100073B506460C4601B3134B144D1448ED1A28
:101C2000ED08AD0145F00105ADF80050D1E9012303
:101C3000096807F0B3FDADF80050D4E90423E1686A
:101C40000C4807F0ABFDE1690B482A4607F079FD27
:101C5000A1690A482A4607F074FD2146304602B0C1
:101C6000BDE8704006F0F6B850B70000F8B70000C5
:101C70005BBD00008ABD0000B9BD0000C8BD00000A
:101C800030BFFFF7FDBF00BF0E4A08B50E4B22F074
:101C90007F029A60BFF34F8FBFF36F8FD3F8882016
:101CA00022F47002C3F88820EFF3148323F00403B6
:101CB00083F3148806F04AF906F052F900F05AFA54
:101CC00006F08CF90000000000ED00E001B572B6EE
:101CD0000B4A106A00281EBF0021116208F0C9FFDC
:101CE00062B6EFF30580A0F110004FEAC00005498D
:101CF000014409C99847BDE801400349084700006D
:101D000040130020D0B500005921000008F063F90D
:101D1000202080F3118808484FF40061401880F3B8
:101D20000988EFF314800221084380F31488BFF37D
:101D30006F8FFFF7A9FF0000A0290020EFF30880B4
:101D4000EFF30981724601B500F032F901BD00BF21
:101D500070B5234B234C244D2448E41AE408A40115
:101D600044F00106314607F0DFFCAA6A930103D56F
:101D70001F48314607F0D8FCAB6ADD0104D51D4889
:101D800044F0010107F0D0FC174DAA6A100304D5F6
:101D9000194844F0010107F0C7FCAB6A590304D5A8
:101DA000164844F0010107F0BFFC0F4DAA6A9203E8
:101DB00004D5134844F0010107F0B6FCAB6ADB031D
:101DC00004D5104844F0010107F0AEFC064A936ABE
:101DD0006FEA03436FEA13439362002070BD00BFB4
:101DE00050B70000F8B7000000ED00E0F6BD0000BD
:101DF0000EBE000021BE00003BBE000059BE000028
:101E00007EBE000098BE00002DE9F041274B284C13
:101E1000284DE41AE408A40144F0010807460E46E0
:101E20002548414607F080FCAA6AD10603D523481D
:101E3000414607F079FCAB6A1A0704D5204844F004
:101E4000010107F071FC1B4DAB6A9B0712D544F0F2
:101E500001081C48414607F067FC696BAB6A18062D
:101E600008D51948424607F06CFC1FB1AB6A23F055
:101E70008003AB620F4DAA6AD20704D5134844F021
:101E8000010107F051FCAB6A9B0604D5104844F0F1
:101E9000010107F049FC074B9A6A9A6A002042F058
:101EA000FF029A623070BDE8F08100BF50B70000B9
:101EB000F8B7000000ED00E0C3BE0000D9BE00008E
:101EC0000CBF00001FBF000037BF00004DBF000067
:101ED0006CBF00002DE9F0412A4B2B4C2B4DE41A2E
:101EE000E408A40144F0010807460E46284841468C
:101EF00007F01AFCAA6AD10403D52648414607F028
:101F000013FCAB6A1A0504D5234844F0010107F01D
:101F10000BFC1E4DAB6A9B0512D544F001081F480F
:101F2000414607F001FCA96BAB6A180408D51C48B0
:101F3000424607F006FC1FB1AB6A23F40043AB62D4
:101F4000124DAB6A590504D5164844F0010107F05B
:101F5000EBFBAB6ADA050DD5134844F0010107F03D
:101F6000E3FB0A4A936A002043F47F439362307094
:101F7000BDE8F081AB6A9B04F3D50C4844F0010145
:101F8000EDE700BF50B70000F8B7000000ED00E03B
:101F90009BBF0000B1BF00000CBF0000C2BF00002B
:101FA000DBBF0000F0BF00000BC000006CBF0000F2
:101FB0002DE9F041564B5E688AB00F46C6F308041F
:101FC000002585F31188BFF36F8F02F07F43B3F1D3
:101FD0007F4F0DD102F00C03082B0BD14D494E4B16
:101FE0004E48C91AC908890141F0010107F09CFB5C
:101FF0002F4603E0120701D40746012500238DF880
:102000000730E31E092B6AD8DFE803F005585C3C73
:10201000696969696960404B3E4E4148F61AF608A5
:10202000B60146F00106314607F07EFB384BDC6A0C
:102030004FF0000814F002048DF8078005D03948ED
:10204000314607F071FB00241FE0DB6A5B001CD502
:102050003548314607F068FB344B1B782BB10DF146
:1020600007010120FFF7D0FE0EE0314B1B782BB1AA
:102070000DF107010120FFF72DFF05E02D4B1B8817
:102080009BB213B1FFF764FE04469DF8073093B985
:102090002022394602A807F04DFF099B9DB3C3F3E8
:1020A000080222B96FEA53236FEA4323099302A976
:1020B0002046FFF7ADFD0AB0BDE8F0810DF1070144
:1020C0000020CFE70DF107010020D4E71149124BA2
:1020D0001948C91AC908890141F00101B1E70E4A3E
:1020E0000C4B164816499B1ADB0816F4F87F4FEA8A
:1020F000831318BF014643F001031248A4F11002F4
:1021000007F033FB9FE723F4FF7323F00103CDE7D0
:1021100000ED00E0F8B7000050B7000023C0000059
:102120004EC0000065C0000086C0000028ED00E041
:1021300029ED00E02AED00E0A5C00000F0C000009D
:10214000DBC0000009C10000024A536943F01003DC
:102150005361704700ED00E0044B9968586A88426B
:1021600003D003494FF080520A60704740130020AB
:1021700004ED00E0044800232021C2180133302B75
:1021800082F80013F9D1704700E100E038B5044649
:102190004FF02003EFF3118583F31188BFF36F8FA6
:1021A00006F0D2FA0A4B9B68A3420BD1094B5A683E
:1021B000C2F3080212B92846FFF73AFC5A6842F007
:1021C00080525A602846BDE8384008F0EFBE00BF94
:1021D0004013002000ED00E01FB5084B0193084BB1
:1021E0000293084B039301AB0093074A074B01216D
:1021F000684600F0AFF805B05DF804FB0000002071
:102200000000000000000B0600000020000002207B
:10221000DFF8BCC0F8B506460F4610460021B942AB
:102220001BDA56F821E0DEF80440002C46D0ABB1B2
:10223000651E2C4205D11F2C03D9DEF80020154263
:102240000CD01F4A1F4B2048D21AD208920142F0EC
:10225000010207F076FA6FF01500F8BD202CC5B228
:10226000DEF80020DEF8080016D9B4F1004F15D8CA
:10227000013CB4FA84F4C4F11F046400072D44EA5D
:1022800000040DD90E4A0F4B1048D21AD208920101
:1022900042F001022946DCE70824EFE73E24EDE79F
:1022A00022F01F022A4342F0100244F00104CCF84D
:1022B0000850681CCCF80C20CCF810400131AEE777
:1022C000E8B7000050B7000020C1000043C1000083
:1022D00090ED00E0034B05225A60BFF34F8FBFF330
:1022E0006F8F704790ED00E0BFF35F8F014B0022CE
:1022F0005A60704790ED00E013490868082810B54F
:102300001ED8FFF7F1FF114C49680022904201F1FD
:102310000C0105D10E4B1870FFF7DCFF002010BD3B
:10232000A26051F80C3C23F01F03134343F0100349
:10233000E36051F8043C43F0010323610132E5E717
:102340004FF0FF30EBE700BF3CB9000090ED00E03C
:102350003318002010B5034C01232278FFF758FFF3
:10236000207010BD33180020014B1860704700BF6B
:10237000F00000204FF02003EFF3118283F3118867
:10238000BFF36F8F06490123C1F840354FF08041FC
:10239000C1F8783582F31188BFF36F8F0020704742
:1023A00000E001404FF08043C0B2C3F81C05BFF30A
:1023B0004F8F0549054BCA6802F4E0621343CB60B6
:1023C000BFF34F8F00BFFDE700ED00E00400FA050A
:1023D00020B1034B800143F001031847704700BF51
:1023E00090B800000E4B402970B528BF40210D4C1D
:1023F00046181D46B04203F1020304D1002305F83C
:102400001130074870BD02781209A25C03F8022C53
:1024100010F8012B02F00F02A25C03F8012CE9E78F
:1024200034180020C1C1000030B503788BB00446D9
:1024300007AD032B21D8DFE803F0021A1C1E124956
:10244000284607F037FD63780493A3780393E37875
:10245000029323790193637900930C4AA37905953C
:102460001E210B4806F08DFE09480BB030BD09490E
:10247000E6E70949E4E70949E2E7094A0A2128466B
:1024800006F07FFEDFE700BF7CC100009EC10000B8
:10249000B518002083C100008AC1000094C100006B
:1024A0005DC4000070B50B4D06460FCD8CB06C4678
:1024B0000FC40FCD0FC495E80F0084E80F000B2E5A
:1024C0009BBF0CAB03EB8606034856F8300C0CB0F0
:1024D00070BD00BF54B80000BDC2000010B50A4A6C
:1024E0000A4C81898068A41AFFF77CFFFEF7CEFBB7
:1024F000E408A40144F00204014622460448BDE871
:10250000104007F01EB900BF50B70000C8B7000068
:10251000C5C2000073B502EBC303054608469342EB
:1025200017D18689194B1A4C80683146E41AFFF797
:1025300059FFFEF7ABFBE408A40144F00204034694
:10254000ADF8004013483246294607F027F902B09B
:1025500070BD144612F8081BA942E0D18189637846
:102560008B420DD9094A0A4B0B489B1ADB089B0189
:1025700043F001032A4602B0BDE8704007F0F5B809
:10258000636802B0BDE87040184700BF50B7000054
:10259000C8B700000BC30000E9C2000010B501215C
:1025A0000446083008F018FA2146034A0078BDE8CE
:1025B00010400023FFF7AEBF5CB900002DE9F043E7
:1025C000074685B09079344E8846144604F0DEFC08
:1025D000864216D0314B324DA0790097ED1AED08A6
:1025E000019004F0D3FCAD0145F00205CDE90206EF
:1025F0002B462C480422694607F0ECF805B0BDE8EC
:10260000F083204604F0CAFC274D4FF00C0909FB6B
:1026100000535B88BB4211D0204B214E2046F61A56
:1026200004F0BCFCF60809FB0050B60146F00206B7
:1026300042881E483346394607F097F8204604F092
:10264000ADFC0C2606FB005043686BB1B8F1000FDF
:102650000AD1204604F0A2FC06FB00504368D3E9EF
:1026600000011A7A07F0D1FC204604F097FC0C26F2
:1026700006FB00508368002BC0D0204604F08EFC7F
:10268000704305F80080204604F088FC06FB0055E6
:10269000A86806F0FBF9B1E74C04002050B7000031
:1026A000C8B700002DC300009406002062C30000DC
:1026B000F8B50B4F06460025FB79ECB2A34202D8D1
:1026C0006FF0010409E0C4EBC4010722394430462D
:1026D00007F020FC01350028EED12046F8BD00BFF0
:1026E0000000002038B504210446083008F074F9D1
:1026F0004578017840882246FFF760FF25B10348FE
:10270000BDE8384006F0C2B938BD00BFB0000020B7
:1027100038B503210446083008F05EF9A36805784F
:102720001978B0F801002246FFF748FF25B10348A9
:10273000BDE8384006F0AAB938BD00BFB00000209F
:10274000436837B50446580508D422690AB1D90749
:1027500004D5174D2078EB79834202D8002003B0CE
:1027600030BDC0EBC0000023072269462844009317
:10277000CDF8033007F0CEFB0028EFD06368DA070E
:1027800006D495F83820082A02D8A2689F2AE5D9ED
:10279000DB0601D4236943B9D4E902239A42DDD888
:1027A0001F2ADBD9B3F5804FD8D80120D7E700BF67
:1027B000000000202DE9F84F4FF0FF324FF0FF33BB
:1027C00005461648DFF858800E4608F0BAF8044669
:1027D00000F1080B00210027584608F0D1F82775B2
:1027E000204604F0DBFB4FF00C0A0AFB008045801A
:1027F000204604F0D3FB0AFB00808760204604F0EB
:10280000CDFB0AFB008003214760584608F0CDF855
:10281000867005802046BDE8F88F00BF4C0400207C
:10282000940600202DE9F041074686B015460C4677
:1028300021B9FFF7BFFF0446002855D0012200212F
:10284000684608F0A3FC204604F0A8FB284E0C23A1
:1028500003FB0060C0F808D0204608F0A2F8254825
:10286000214608F091F84FF4A0220023684606F0B4
:1028700033F9804680B1204A204921484FF4B9738A
:1028800006F072FC1F48414606F06EFC404080F3A3
:1028900011884FF0030002DF204604F07FFB0C2379
:1028A0004343F65CBEB1184A184B19489B1ADB0823
:1028B0009B0143F002033246394606F056FF20469C
:1028C00004F020FC092E0CBF6FF03C006FF00400F8
:1028D00006B0BDE8F08115B12C603046F8E720461F
:1028E00004F010FC2846F3E76FF03600F0E700BF75
:1028F00094060020CC00002095C3000002C4000014
:102900000BC4000028C4000050B70000C8B7000086
:1029100048C4000070B5154E062206F13101054687
:1029200007F0F8FA0446E0B1062142F20500FFF78D
:1029300041FF0446B8B106222946083008F03BF8AA
:102940002146002242F20500FFF76CFF044640B921
:102950000622294606F1310007F0ECFA012386F839
:102960003030204670BD6FF03604FAE700000020DA
:10297000F7B5044611F00100154615D01C4EC4EB06
:10298000C403E700F35C012B05D03C1B0020335D42
:102990002B7003B0F0BD072010FB04303044FFF76C
:1029A000B9FF0028F1D0F4E74B0710D5104EC4EB67
:1029B000C403E700F35C012B05D1072010FB0430B2
:1029C0003044FFF7A7FF3C1B335D2B70E1E7062186
:1029D000684607F042FE40B99DF80530684603F0AE
:1029E0003F038DF80530FFF795FF0123EDE700BFAA
:1029F000000000202DE9F74F0C46202182461546A5
:102A0000FFF7D8FE064600285BD02021083007F0EB
:102A1000CCFF20220021814607F0B7FA04EBC50362
:102A200009F1010B00930025D4F8008000236268AF
:102A300093420DD3009B08349C42F5D100223146CD
:102A4000504689F8005003B0BDE8F04FFFF7EABEEA
:102A500098F8012098F800C0A81C81181F2919D9DE
:102A6000BCF1090FC5F11D0200D18AB9164B1749F7
:102A70001748C91AC908890141F0010106F054FE3E
:102A8000304604F03FFB6FF0150003B0BDE8F08F57
:102A90004FF0080CD7B2791C0BF80510691CC9B2AD
:102AA0005BFA80F00BF801C0D8F8041001930237EC
:102AB00007F040FA019B3D44EDB2013308F10808EC
:102AC000B5E76FF03600E0E750B70000C8B7000088
:102AD00064C400002DE9F04786B004469DF83C80B0
:102AE0009DF838900F4615460021102202A81E4678
:102AF00007F04BFAB8F1000F0FD0002C3ED1002D9B
:102B000047D1DFF8C8A0504607F0F1F909238DF846
:102B100000308DF80100CDF804A0CDE90247B8F1EE
:102B2000000F38D0B9F1000F35D10123CDF810D006
:102B30000593022202A942F20800FFF75BFF044658
:102B400078B9B9F1000F28D11F4BBFF35B8F53E861
:102B5000002F42F0040243E800210029F7D1BFF31F
:102B60005B8F204606B0BDE8F08714F83320083AA2
:102B7000012A25D901339F42F7D1C0E70023FAE7A4
:102B800015F83320083A012A1AD901339E42F7D1A9
:102B9000B7E70023FAE70122CCE7CDE9025601228C
:102BA000B8F1000F03D00592CDF810D0022202A98F
:102BB00042F20900FFF71EFF0028C5D00446D0E707
:102BC0006FF01504CDE700BF2C000020EEBB000025
:102BD00030B5012185B0054642F20A00FFF7EAFD53
:102BE0000446E8B10830CDB1012107F0EDFE0E4BEF
:102BF00001932046062302938DF80C5004F0CEF981
:102C00000A4B0C2202FB003001AB4360002221463C
:102C100042F20A00FFF706FE05B030BD2946E4E7A0
:102C20006FF03600F8E700BF2C000020940600206B
:102C300030B5144DC0EBC00085B005440C4679B1E9
:102C400000230722694620460093CDF8033007F0A1
:102C500061F928B12146284607F0C5F905B030BD15
:102C600002A807F0ECF902A8FFF722FD0028F7DA26
:102C700002A9284607F0B7F9002CEFD029462046D4
:102C8000EAE700BF00000020024BD3F8E4301B69E4
:102C9000184700BF000000202DE9F041464B474D8A
:102CA000474E484FED1AED0806F1B008FB686FF388
:102CB0001033FB6043484FF0FF324FF0FF330121E8
:102CC00006F0BCF960B1404A4049414841F2E34353
:102CD00006F04AFA404080F311884FF0030002DF0B
:102CE000F968C1F30431012907D9042908D0AA01E0
:102CF000384842F0020206F024FD05F053FED5E705
:102D00003B7B002BF9D134480022002307F01EFE44
:102D10000446002842D04FF0FF334FF0FF324046C8
:102D200005F0DAFED6F8C83053BB204607F039FE6E
:102D3000C6F8C8002046FFF7A7FF01460028DCD0F0
:102D4000AA01264842F0010206F0FBFC244805F0E7
:102D50009DFE204604F022F9224B0C2202FB00309B
:102D60001F2122464088FFF729FCD6F8C80004F04E
:102D7000C9F900232046C6F8C83004F0C3F9BCE7FF
:102D8000A901194841F0010106F0CEFCD6F8C800AF
:102D900004F0B8F90023C6F8C830C6E70A4A134958
:102DA0000B4841F2854306F0DFF9404080F311887B
:102DB0004FF0030002DFAEE750B70000C8B70000D5
:102DC00000000020F400002095C3000002C40000B1
:102DD0000BC400009FC40000CC0000207DC4000094
:102DE000B000002094060020C0C400006ED1000096
:102DF00038B5017D0129044631D18389012B0CD8D6
:102E00001F4A2049204841F2724306F0ADF9404084
:102E100080F311884FF0030002DF022104F1080063
:102E200007F0DAFD03780E3B012B05460CD8144A57
:102E30001649154841F2764306F096F9404080F372
:102E400011884FF0030002DF114A2878022321463F
:102E5000FFF760FB204604F055F9002038BD0D4B0C
:102E60000D4A0E48D21AD208920142F0010206F031
:102E700068FC204604F046F96FF01500EEE700BF4D
:102E800095C30000DBC400000BC40000F4C40000C4
:102E90009CB9000050B70000C8B7000012C5000080
:102EA00038B5037D012B04460CD01F4A1F4920482A
:102EB00041F6F70306F058F9404080F311884FF0CF
:102EC000030002DFA389012B0CD8174A19491848BF
:102ED00041F6F80306F048F9404080F311884FF0BE
:102EE000030002DF022104F1080007F075FD0378FA
:102EF0000E3B012B05460CD90B4A0F490C4841F6F5
:102F0000FB0306F031F9404080F311884FF00300D5
:102F100002DF0A4A287802232146FFF7FBFA2046FF
:102F200004F0F0F8002038BD95C3000026C500006D
:102F30000BC40000DBC40000F5C40000BCB90000F5
:102F4000084A0346D2F8E40030B9D96839B11969A2
:102F500029B1C2F8E43070476FF0440070476FF059
:102F600015007047000000202DE9F043304CBFF3FE
:102F70005B8F87B004F1980353E8002F42F0020200
:102F800043E800210029F7D1BFF35B8F294B2A4D7D
:102F90002A492B4EDFF8B890ED1AE3792046012B31
:102FA00088BF0E46FFF740FAFDF770FEED08AD0151
:102FB00045F003070246314622483B4606F0D5FB62
:102FC000A0460126E3799E4208F1070822DB94F827
:102FD00038603046FFF766FA638F049345F00305C7
:102FE000E38F0593CDE902062B4602A90422164879
:102FF00006F0F0FB94F839603046FFF753FAA38FE0
:10300000ADF8005001463246104806F0C7FB07B045
:10301000BDE8F0834046FFF707FAFDF737FE31467B
:1030200002463B46484606F0A0FB0136CAE700BF11
:103030000000002050B70000C8B7000049C50000DC
:10304000EDBB00004DC500006DC50000ABC5000024
:103050005CC5000037B50C46054618B94CB36FF097
:10306000150423E00023072269460093CDF80330BE
:1030700006F050FF0028F1D02B78012B04D1AB795A
:1030800003F0C003C02B0AD0114B12491248C91AD1
:10309000C908890141F0010106F046FBDFE7284637
:1030A000FFF706FB0028D9DB6FF04404204603B08D
:1030B00030BD0A4BDC79012C06D0621C2946204623
:1030C000DA71FFF7B5FDF1E76FF00B04EEE700BF33
:1030D00050B70000C8B70000D2C5000000000020B3
:1030E00013B501460E4806F078FF8307C0F340048D
:1030F0000DD50C4B0C490D48C91AC908890141F07E
:10310000010106F011FB6FF00F0002B010BD684620
:1031100006F069FF21466846FFF79CFFF5E700BF10
:103120009800002050B70000C8B7000000C600009B
:1031300070B586B001AA002141F20900FFF772FBC9
:103140001F4E044668B11F491F4B2048C91AC908C1
:10315000890141F0020106F0E7FA0023F37106B09D
:1031600070BD019B9D6804900135ADF814000622E6
:1031700004A9284606F0CEFE18B9019803F0C2FF54
:10318000EBE74FF0FF33062202A928460293ADF881
:103190000C3006F0BFFE0028EFD0294606220DF1C4
:1031A000110006F0C7FE01988DF8104003F0AAFF49
:1031B000012304A92046F371FFF73AFDCFE700BFD2
:1031C00000000020C8B7000050B700002FC6000064
:1031D0002DE9F341254B93F88A4014F0010407468A
:1031E0000E460AD12249234B2348C91AC90889012E
:1031F00041F0020106F098FA12E001AA00214FF610
:103200000940FFF70FFB054670B11A4B18491B48E0
:10321000C91AC908890141F0020106F085FA0024A3
:10322000204602B0BDE8F081019B9B685C78B44207
:1032300028BF34464FF016089E1CA5420DDB0198AE
:1032400003F060FF002CEBD109490A4B0C48C91A66
:10325000C908890141F00201CCE708FB057016227C
:10326000314606F067FE0135E7E700BF00000020A9
:10327000C8B7000050B700004DC6000079C6000076
:1032800099C60000F0B5144DEC7989B0F4B901216C
:1032900002A8FFF79DFFE871C0B116270FE002AB4F
:1032A00007FB063106220DF1010006F043FE012363
:1032B000694630468DF80030FFF7BAFC0134EB79EF
:1032C000E6B2B342EBD8002009B0F0BD00210846B9
:1032D000FFF7C0FEF8E700BF00000020F0B5BC4DCE
:1032E000D5F8E430996811F0010187B01FD101AA27
:1032F00040F60340FFF796FA044600286ED1019B82
:103300009B681B7883B905F19803184606F065FEA3
:10331000BFF35B8F00F0050053E8002F43E8000186
:103320000029F9D1BFF35B8F019803F0EBFE01AAEE
:10333000002141F20300FFF775FA044600284DD141
:10334000019BA44899680822013106F0F3FD019819
:1033500003F0D8FE214601AA41F20100FFF762FA0C
:10336000044600283AD1019883685A7885F83820B5
:10337000D9789A7842EA01226A871A7985F8392041
:10338000197ADA7942EA0122AA875A799B7942EAC4
:103390000323EB8703F0B6FE214601AA41F20200A7
:1033A000FFF740FA0446C8B9019B8B489968402250
:1033B000013106F0BFFD019803F0A4FE95F84430FA
:1033C00058060ED4854B86498648C91AC908890112
:1033D00041F0010106F0A8F96FF01204204607B091
:1033E000F0BD214601AA42F20300FFF71BFA044692
:1033F0000028F3D1019B7C4899680822013106F02E
:1034000099FD019803F07EFE95F84430990666D543
:1034100095F864301A077ED4082142F20100FFF7C4
:10342000C9F90446002861D00821084407F0BDFA14
:1034300002270022077042708270C27002714271CE
:103440008271C271214642F20100FFF7EBF9044696
:103450000028C3D1082140F60140FFF7ABF906462A
:10346000002843D00821084407F09FFA80234370C6
:10347000202304708470047144718471C770C37117
:103480002246314640F60140FFF7CCF904460028B9
:10349000A4D101466A464FF60140FFF7C3F9504EEA
:1034A0004E4BF61AF608B601002848D04F4846EAB7
:1034B000070106F039F9EB79002B8FD1FFF738FEC1
:1034C000EB79002B8AD1FFF7DDFE0446002800F0DF
:1034D000C680474846F0010106F026F97EE7022142
:1034E00040F66D40FFF766F9064610B96FF03604F6
:1034F00074E70221083007F058FA01234470037082
:103500002246314640F66D40FFF78CF9044600280C
:103510003FF47EAF62E701AA002142F21C00FFF7F0
:1035200081F9044600287FF459AF0198836853F865
:10353000012F5B68C5E92A2303F0E4FD6CE7009BDB
:103540002C489F68B7F80120032A96BF2A492B49C7
:1035500051F8221046F0030306F007F9B7F80110FE
:10356000B7F80320022946F003032ED1032A2CD8F2
:10357000234951F82210234806F0F7F87A792248B7
:10358000032A96BF21491D4951F82210CDE90112A5
:10359000BA790392B7F807200492D7F80920059268
:1035A00046F00303052201A906F014F9009803F080
:1035B000A9FD6A4600214FF60240FFF733F907469E
:1035C00040B3134846F0020173E70C49D3E700BF4C
:1035D00000000020400000204800002050B70000FC
:1035E000C8B70000C2C60000A0000020E6C6000068
:1035F000BAC700000AC70000ACB90000BDC2000095
:103600008CB9000023C700003BC70000CCB9000004
:1036100068C70000009B174899680222013106F034
:1036200089FC009803F06EFD95F889305B077FF503
:1036300042AF6A4639464FF60340FFF7F3F818B138
:103640000D4846F0020134E7009B0C4899680122BE
:10365000114406F06FFC009803F054FD2BE7084876
:10366000FFF758F9044600283FF4B8AE054846F085
:10367000010131E78900002091C700008800002087
:1036800001000020D9C7000070B5394DD5F8E430ED
:1036900088B0064673B9374B37493848C91AC90844
:1036A000890141F0010106F03FF86FF01204204655
:1036B00008B070BD05F19802BFF35B8F52E8003F80
:1036C00043F0010142E800100028F7D1BFF35B8FFF
:1036D00013F0010348D12A4A1660002000216FF040
:1036E0000802CDE90601CDE90232CDE900330493A9
:1036F0002449254B25484FF4207205F055FA2449FA
:10370000224807F05BFDD5F8E430DB6898470446B3
:1037100058B1184B184AD21AD2089201014642F009
:1037200001021C4806F00DF8C1E73EB9FFF7D6FDCF
:1037300004460028BBD1FFF717FCB8E705F1940356
:10374000BFF35B8F53E8002F42F0010143E8001004
:103750000028F7D1BFF35B8FD307A8D40E4805F13B
:103760008C0107F0A0FBA2E76FF044049FE700BFC5
:103770000000002050B70000C8B70000F6C70000E6
:10378000AC060020201C0020992C0000B006002070
:103790000FC8000015C800007C13002010B5FFF70B
:1037A0009DFD044608B9FFF7DFFB044B1B681BB106
:1037B0002046BDE81040184710BD00BFAC060020F1
:1037C0002DE9F0476C4C076988B0054604F1980074
:1037D00089469246984606F000FC810740F1BF807A
:1037E0002846FEF7ADFF0646002800F0BB800F22FA
:1037F000002104A806F0C9FBAB68ADF81030EB68F7
:10380000ADF8123007238DF81D3004F12C00002391
:103810008DF81E3006F0E1FB420600F1A680227E04
:103820002B789A4205D06FF4805104F1980006F08D
:10383000DDFB2878207684F8370069680DF11502E1
:10384000FFF796F8044600285ED1002F3AD0296988
:103850004A4806F0C8FB6868C3073BD5002F36D03E
:1038600010F0100F14BF0423012329698DF81430C0
:103870000DF1160006F0B7FB0F2142F20600FEF72D
:1038800099FF0446002873D00F2204A9083007F0DE
:1038900092F82146002242F20600FEF7C3FF0446DA
:1038A00090BB1FB30120FFF793F9044680B3344B5C
:1038B00034493548C91AC908890141F0010105F0A8
:1038C00033FF21E0029702A9CDF80B70C0E78DF815
:1038D0001470D1E7B8F1000F06D1C0F3C006C6F1ED
:1038E00003038DF81430C7E70126F8E76B68C3F3CC
:1038F000C003CDE900634246109B51464846FFF79E
:10390000E9F804460028CDD0204608B0BDE8F0878D
:103910001FBB6A6882F00202C2F340021B480B21FF
:1039200006F073FB6A681948C2F3C002072106F06B
:103930006CFB6A68154802F00102082106F065FB7D
:1039400032461248092106F060FB6A680F48C2F34C
:1039500080020A2106F059FBD6E70246DEE76FF047
:103960000A04D1E76FF01504CEE76FF04404CBE70B
:103970006FF03604C8E700BF0000002023000020DD
:1039800050B70000C8B7000031C800002C0000206C
:1039900038B50546054806F0D4FF044620B100219D
:1039A000083006F0EDFF2575204638BD7404002070
:1039B00070B502460B464FF02001EFF3118581F3FD
:1039C0001188BFF36F8F0C480021D0F8C840C0F8B1
:1039D000C81085F31188BFF36F8F24B9BDE870401C
:1039E0000120FFF7D5BF012304F108002375A18151
:1039F00006F0C6FF204670BD000000200E380128EA
:103A000070B50C46194604D8BDE870401046FFF763
:103A1000CFBF64B1084806F094FF044628B10021E6
:103A2000083006F0ADFF01232375204670BDBDE8C8
:103A300070400120FFF7ACBF240400202DE9F047BF
:103A4000114FDFF848A00424013CE4B2FF2C18D049
:103A500004EB44064FEA8409360104254FF00C08B4
:103A60000AE018FB05610A1D05EB09003A443944D8
:103A70000AEBC00006F05FFB013DEDB2FF2DF0D177
:103A8000E2E7BDE8F08700BFA4070020240700207C
:103A900070B506460D461C46A2B101236278207817
:103AA000801A10F003002CD01BB3012828D001325B
:103AB000D2B222701C4B0122294630465A5503F0DF
:103AC000B3F91CE006F089FE0028E6D0294630460E
:103AD00003F08AF90028E0D030230C226B4302FB6C
:103AE0000633124A1A44937AD27A9B1A18BF0123DA
:103AF000D4E70232D2B22270D4E902039847002000
:103B000070BD002BF8D00132D2B2227004233022D3
:103B100012FB05320C2313FB0623044A60681A4487
:103B2000214606F00BFBC5E7D3180020A4070020B0
:103B30002DE9F04F5B4B1A5C89B00446002A00F077
:103B4000AA8000271F5400EB40031B01DFF858B187
:103B5000049304253C2313FB00535B440393009719
:103B6000DA46013DEDB2FF2D0CD1009B002B00F099
:103B70009280002F40F08F803A462146204603F085
:103B800013F988E000234FF00C08079308FB05F8B1
:103B9000302303FB04830AEB03015AF8030049684E
:103BA00007AA06F0D2FA049A05EB450302EB830359
:103BB0005344CDE901830646002E4ED0079B93F86F
:103BC00000905A78A9EB020909F00309B9F1010F35
:103BD00004D1013A5A70D3E902029047DDF81C8003
:103BE00098F8002098F80110D3B2521A02F003029C
:103BF000012A05931FD0019B0299302000FB04305D
:103C0000294B18440022406806F0A7FA059B98F853
:103C1000012088F8013098F80030C8F804609B1A39
:103C200003F00303012B06D188F801204146039AD3
:103C3000304606F083FA019A302303FB04230AEB93
:103C400003015AF80300496807AA06F07EFAB9F1A1
:103C5000010F0646B0D1BDB9B0B9302212490C23CC
:103C6000624303FB05220A44917AD07A884215D137
:103C70003022624303FB05235B441A7A597A91424E
:103C80001CBF5A7201276CE7064B012221462046D1
:103C90001A5503F0C9F809B0BDE8F08FD1720122BE
:103CA0000092E5E7D3180020A40700202DE9F04F8B
:103CB000C37F8FB004460493002B40F0B783436961
:103CC000C17A0793837A01229942827756D01344AE
:103CD000DBB2022B08BF0023837200EB8303059243
:103CE000DB6801930199079B0B4423F07F434361F9
:103CF000637F06932368099363680C93637A039345
:103D000000230893FF230293039B013BDBB2FF2BAD
:103D1000039337D1637F069A9B1A18BF012303933D
:103D2000059B002B00F0848202F0D2FC079B019FD0
:103D3000C01A2368099320F07F4B4FF0000A657F7B
:103D4000FF2D0DD028B200EB400003010B93099B1F
:103D500003EB00108268BA4240F22E81D71B8760C5
:103D6000DDE90521039B2046A94218BF13460299AD
:103D7000039306F03CFA2568667FCDE1049B05932A
:103D80000193B5E70C9B039A03EBC208D8F8043003
:103D90000A9398F80320342098F802709742B3D021
:103DA0000A9B98F8005017FB00F15E187B1CDBB2F1
:103DB0009D4208BF002388F802300A9B595C042901
:103DC000EAD9707800EB40052B010D93099B03EBBA
:103DD0000515072995F802C06A78A2EB0C02D2B249
:103DE0000ED86AB1052910D1736873B9B36863B985
:103DF000F36853B9336943B9736933F07F4304D12E
:103E00000121304606F0E9F9C3E7012A40F0C980F4
:103E1000637FD4F800901A460027FF2B30D100278B
:103E20000529AF6040F09A80D4F8149002F050FC5D
:103E300001990B90A0EB090323F07F430B449F42B1
:103E400098BF696968689DBFCF1BDB196B61FB1A5E
:103E500098BF0023002857D0B18A002954D001F11F
:103E6000FF3C1FFA8CFCDFF8CCB2A6F814C09842D5
:103E7000B5F81EE001D2F44513D3DFF8BCA23DE053
:103E800003EB430E4FEA0E1B09EB0E1E9842DEF8C1
:103E900008A019F80BB0574400F0A9821A465B46F7
:103EA000BBE7696AA14FA24ACF19974284BF594420
:103EB0006962D5E908178CBF4FF0010A4FF0000A7C
:103EC0007F1A82440EF1FF3E6F62A3EB0A03A5F84E
:103ED0001EE0CCE7D5E908170F449449944A7918B5
:103EE00091428EBF00210121574401440EF1010E81
:103EF0008CBF6F626F620B44A5F81EE0B5F81EE040
:103F0000F445E7D8A5F81CC07168B068AF6A0B44E7
:103F1000AB606B6903446B611FB13B680BB1091A5D
:103F200079600B9A4946284606F039F9F268AB6980
:103F30001344326993428CBF9B1A0023AB61B37D5B
:103F400003B1EB70099B0D9A1946029B8B54737851
:103F500002936B7801336B70002152E785F801C042
:103F6000237F8342F8D1FF23072923770DD170687F
:103F70006369C21A11020BD422F07F43019A1344E1
:103F8000A2699A4288BFA361E6E702F0A1FBEFE7CE
:103F9000019A1B1A23F07F439A428CBFD31A002345
:103FA000EEE704212346656A01220846A84701235B
:103FB00088F802700893A7E690F82C30BF1A924454
:103FC000ABEB020B002B48D0C68B003E18BF01267E
:103FD000A1698A4224BFFF222277D0F818C034BFDB
:103FE0008A1A0022A261826ABCF1000F0FD04178C8
:103FF00090F802E0A1EB0E01C9B2022907D136B94F
:1040000012B1117A012902D02577C4F818C0002115
:1040100081600B9E0999895D6177D0F804E0BEF15B
:10402000000F1CD1002A65D0117A012962D1127AC1
:10403000012A16D1837887604370079B616903EB7F
:104040000A0206F0ACF8099B0B9A1946029B8B54A6
:10405000437801334370029571E61E46B8E7002AA3
:10406000E5D1B0F81E80B8F1000F27D1828B0A92FB
:10407000DDF828904FF0000CD0E9086131442B4E58
:104080002B4A8E1996429FBFA1F1E871A1F5D43158
:10409000A1F5A571416292BF059941620021714469
:1040A000B9F101098C44E7D20BB300210A9BC0F897
:1040B00008C00B449844A0F81E80BEE78278427086
:1040C0000022D4E7D0E908613144184E184A8E190D
:1040D00096429DBF494441620599416288BF0021D3
:1040E00071448C440133E34599B2EBD8DEE7DFF845
:1040F0004890F8E78378029D4370ACE706EB4601F1
:104100000B0105EB011115F803E08F6A1FB13B7A33
:10411000012B00F085817646FF2EEFD1DDE90323E8
:10412000002B08BF1346039386E000BF5A2B17FFEE
:10413000592B177F4AA9D101B6562EFEA069019BC3
:10414000834280F07181C31A0293D7E9002393421E
:1041500055D24FF0000CA2EB030A72466346FF2AC9
:1041600006D0D1F818800CEB08008245049017D2D5
:104170008B607246FF23FF2A46D002EB42004FEAD3
:10418000001905EB0010D1F80880D0F808C0E04510
:1041900037D9A8EB0C038B60134615F80920EAE722
:1041A00002EB42024FEA021B05EB0212D2F8289002
:1041B000B9F1000F07D099F80890B9F1010F02D1B9
:1041C00015F80B20CBE7D2F80890B9F1040F0ED9FF
:1041D000ACF104034B445345049828BF5346834233
:1041E00005D9B3EB080302D002988342C0D290698C
:1041F00000EB09030293CC44AAEB0803E0E7002399
:10420000B6E7ACEB08028260FF2B08D01BB203EBD1
:1042100043031B0184F81DE0EA5C0A70EE54CB8B6B
:10422000013BCB834FF002033B7201230493A3E5D0
:104230000299204605F0DBFF637F039A06998B42C3
:1042400018BF0122089B0392E3B10023A377039BCD
:1042500053B1637FFF2B40F0818002F013FA18B94D
:10426000A06102F035FA6061E37F002B00F0DE8090
:10427000656A2346012203210420AC460FB0BDE845
:10428000F04F60476368657ADDF820A00193013D37
:10429000EDB2FF2DD9D0019B03EBC506D6F8048003
:1042A0007378F2789A42F2D0342213FB02F208EBD0
:1042B000020318F80220022A13D0032A3ED0012A52
:1042C00006D1C3F828A0DA6A12B1196B986A904730
:1042D000737832780133DBB29A4208BF00237370DF
:1042E000DEE7D3E9019099F80020D3F80CE0D4F888
:1042F00000C06169FF2A02D00768B94213D0627F0B
:1043000001600020FF2A09D002EB42014FEA011BA5
:104310000CEB01118F688969384461B189F800207C
:10432000CEF80000CDE702EB42021201DEF80000F9
:104330001CF80220E6E71CF80B20E3E75A78217A04
:10434000914208D902EB4201226802EB011219796D
:1043500082F82D10B5E701229A62B4E7069BFF2B85
:1043600006D102F0B5F9054602F07EF900B96561A3
:10437000637F2268DFF8BC80DFF8BC90DFF8BCA068
:1043800003EB430302EB03130A269F6802F0A0F934
:104390006569431B23F07F430333BB422CBFED18F9
:1043A000ED1925F07F45A36A83462846984702F019
:1043B0008FF9A0EB0B0323F07F43A5EB0B05033331
:1043C00025F07F45AB4206F1FF367FF64DAF002E5C
:1043D000DCD140F6710342464946504604F0C4FE23
:1043E000404080F311884FF0030002DFCEE7904297
:1043F00001D184F81DB012B202EB4202120109F899
:1044000002B09EF80030FF2B3FF40AAD03EB4303EC
:1044100009EB0319D9F808205244C9F80820FFE431
:10442000237FFF2B7FF48AAE00238DE60FB0BDE81B
:10443000F08F00BF4CC8000081CA00000BC4000010
:10444000F0B5059F9DF818E0DDF81CC0054608B1E1
:104450000120F0BD194C217222600139C9B2FF2937
:1044600018D1637267603421013BDBB2FF2B18D196
:10447000BEF1000FECD1089B2362099B63620A9B8B
:10448000A3624FF6FF73C4E905EEA383A4F80AE024
:104490007046DEE701EB410602EB061686F82D506A
:1044A000DBE707EBC302C2F804C017F8332002FBB6
:1044B00001CCAEEB02025FFA82FED5E76408002071
:1044C000074B2C2202FB003110B44C6A34B10B466E
:1044D000A446012210BC03210220604710BC704793
:1044E000640800202DE9F8430546084611461A469F
:1044F000224B2C2405FB0439D9F8043003EBC00C03
:1045000013F830309CF803707E1CF6B2B34298BFAB
:1045100000269CF80130B3422ED0342317FB03F75A
:10452000DCF804304FF00408DC1903F80780089B1E
:10453000A360099BE3600A9B23610C9BA361BDF808
:104540002C30A382119B63620D9BE3610E9B23625F
:104550000223A3620F9BE362109B6170626023637E
:104560008CF80360D9E9083698474B46002241464B
:10457000B047A06ABDE8F8830120FBE7640800208B
:104580002DE9F041054608461946204B2C2405FB31
:104590000438D8F8043003EBC00C13F830309CF822
:1045A00003707E1CF6B2B34298BF00269CF801301F
:1045B000B34229D0342317FB03F7DCF804304FF063
:1045C000050EDC1903F807E0069BA360079BE36078
:1045D000089B2361BDF82430A3829DF82830A37581
:1045E0000223A3620B9BE3620C9B627061602363F6
:1045F0008CF80360D8E90836984743460022042126
:10460000B047A06ABDE8F0810120FBE76408002004
:104610002DE9F843044608461946194B2C2504FB9E
:104620000539D9F8043003EBC00713F83030FE78B1
:10463000751CEDB2AB4298BF00257B78AB421DD014
:10464000342316FB03F67B684FF0060C03F806C014
:1046500003EB06080223C8E90A31089B88F8012009
:10466000C8F83030FD70D9E9083598474B4600222C
:104670000421A847D8F82800BDE8F8830120FBE70B
:104680006408002008B50346012B08460ED833B154
:1046900019B10749062205F04DFC054807E019B19C
:1046A0000449062205F046FC024800E0002008BD4F
:1046B000DD180020D718002070B5064600200D46F2
:1046C00005F0D6FF044648B90622294626B104481B
:1046D00005F030FC204670BD0248F9E70C24F9E7EC
:1046E000DD180020D718002008B50248FEF728FC86
:1046F000002008BDDCB90000838937B5044663B9E2
:104700001849194B1948C91AC908890141F0010112
:1047100005F00AF86FF0150016E0017DB1B90191BE
:1047200001A900F095F958B1FEF7BAFB019D3DB122
:10473000284605F08FFF019968710D4806F0B3FB1C
:10474000204602F0DFFC002003B030BD064B054AD6
:104750000848D21AD208920142F0010204F0F1FF97
:10476000D8E700BF80B7000050B70000D3C80000F2
:104770000C040020E4C8000073B50F4D0F4E0DF17E
:10478000020101A800F0FEFC0028F8D1019B5BB1FA
:1047900000F00AFD019C204605F05CFF0199607164
:1047A000304606F080FBEAE74FF0FF324FF0FF3370
:1047B000284604F091F9E2E7CC0300200C04002025
:1047C000F7B5234D234E244F4FF0FF324FF0FF3308
:1047D000284603F0D7FDF8B190F9053001905A1E34
:1047E000032A24D8022B1AD1002200230121002001
:1047F000FFF704F9044618B10146019800F0F2FAF7
:10480000019B00221A6001A800F00EFD24B1A389CB
:104810002046D3B1FEF7ECFA04F0C4F8D4E74FF029
:10482000FF324FF0FF330120FFF7B2F8E2E70B4809
:10483000B4233246394604F097FC404080F3118897
:104840004FF0030002DF0024DAE702F05BFCE3E74D
:104850000C040020F8C8000051D100000BC4000077
:10486000D0B5204888B000F0CFFB044668B11E4A9E
:104870001E4BD21AD2089201014642F001021C4896
:1048800004F05FFF204608B0D0BD05F0E5FE00262D
:1048900000276FF00903CDE90243CDE90667CDE9B2
:1048A0000044144B144904944FF4E072134804F08C
:1048B0007BF91349114806F081FC6FF00703CDE93D
:1048C0000243CDE90667CDE900440E4B0E4904943E
:1048D0004FF480620D4804F067F90D490B4806F06B
:1048E0006DFCCFE7CC03002080B7000050B700007C
:1048F00071C9000079470000A01E00209008002028
:104900008EC90000C147000060200020040900207B
:1049100098C9000038B5064B054618880C4605F0C6
:1049200075FE21462860BDE83840083006F03DB8E5
:104930000C140020F0B5013887B01446092800F2A5
:104940008180DFE800F0051B327F7F5B7F3E66736E
:104950000D211046FFF7DEFF022300214370C370D4
:10496000837103230170817001714171C371017200
:1049700041728172C17201730C4613E041211046ED
:10498000FFF7C8FF00240546402200F8014B2146EE
:1049900005F0FBFA6B7863F058036B70AB7843F06B
:1049A0000303AB70204607B0F0BD09211046FFF7A6
:1049B000B1FF002400F8014B0822214605F0E5FA7A
:1049C000F0E7224B6A4603F110071646186859684B
:1049D000154603C50833BB422A46F7D118681B7930
:1049E00028602B7116212046FFF794FF002400F861
:1049F000014B1522314605F09DFAD3E78968002066
:104A0000FFF75AFE01212046FFF784FF00210170C5
:104A1000B2E718211046FFF77DFF0024054601216B
:104A200000F8024B05F0FFFE6870BBE7212110463D
:104A3000FFF770FF0146002401F8114B013005F02B
:104A400048FFAFE76FF01504ACE700BFBCC900003A
:104A500070B583898AB00025022B044605950CD8D1
:104A6000CE49CF4BCF48C91AC908890141F001018D
:104A700004F05AFE28460AB070BD0321083005F044
:104A8000ABFFA28983789A4208D2C449C44BC64876
:104A9000C91AC908890141F00101E9E70388C34E39
:104AA000C3F3090033809B0A082B00F0A18009D8CA
:104AB000032B10D0042B1ED03088012105F0B8FD47
:104AC000059013E03F2BF7D105AA2146FFF732FFEF
:104AD0001630F1D00AE003280AD0632801D001285B
:104AE000EAD1012105A8FFF715FF05700598C2E777
:104AF00000F0E8FAF5E701380828DDD801A353F8FB
:104B000020F000BF294B0000534B0000BF4B0000BA
:104B1000B94A0000B94A0000B94A0000B94A000089
:104B2000B94A0000DB4B0000092105A8FFF7F2FE9F
:104B3000002303708370C3706FF00E030B22437168
:104B400005238371427002714FF0FF33C37103720A
:104B5000CCE7412105A8FFF7DDFE002104464022F5
:104B600000F8011B05F011FAA379217FA27E63F002
:104B70003F03A371E37A43F00403E372E37B43F062
:104B80002803E373237C43F002032374E37D43F0A3
:104B90000403E375E37E61F03C0163F03C0321779D
:104BA000E376617F94F8273041F0080162F0080253
:104BB00063F07F036177A27684F8273096E70921B6
:104BC00005A8FFF7A7FE00210446082200F8011BF4
:104BD00005F0DBF96023637188E7072105A8FFF77B
:104BE00099FE0146002001F8010BFFF74BFD7DE720
:104BF0001C2841D800283FF45FAF431E1B2B3FF613
:104C00005BAF01A252F823F0954C0000A34C0000CA
:104C1000BB4C0000B94A0000DB4C0000814D000095
:104C2000B14D0000C14D0000CD4D0000D94D000038
:104C3000B94A0000B94A0000B94A0000B94A000068
:104C4000F14C0000074D0000194D0000214D0000FF
:104C5000B94A0000B94A0000B94A0000B94A000048
:104C6000294D00004F4D0000B94A0000B94A00002C
:104C7000B94A0000654D00004B287FF41DAF0321A9
:104C800005A8FFF747FE0146013001F8025B05F079
:104C90009EFC2BE7012105A8FFF73CFE00230370D3
:104CA00024E7042105A8FFF735FE002303701B222B
:104CB000837003234270C37018E7092105A8FFF72A
:104CC00029FE00250446082200F8015B294605F06C
:104CD0005CF96570A570E57008E7A1680120FFF731
:104CE000EBFC0446012105A8FFF714FE0470FDE665
:104CF000022105A8FFF70EFE00230370044605F00D
:104D0000C6FC6070F2E6012105A8FFF703FE044629
:104D100000F0FCFE2070E9E6A06800F009FFE0E783
:104D2000A06800F039FFDCE7A06806AA002300F1C4
:104D3000100105F02AFD112105A8FFF7EBFD002366
:104D400000F8013B102206A905F0F4F8CEE609218F
:104D500005A8FFF7DFFD002300F8013B082101F063
:104D60000BF9C3E6092105A8FFF7D4FD00230322B0
:104D7000037042708370C370037143718371E5E601
:104D8000A468A57BA3796279217920880295657B47
:104D900001950734009400F00DFDA2E778B70000FC
:104DA00050B70000D1C90000E7C900000C14002072
:104DB000022105A8FFF7AEFD00230370437095E6BE
:104DC000A16811F8010B00F05DFD8AE7A16811F8F8
:104DD000010B00F097FD84E7A3681878FBF70CFB44
:104DE0007FE700BF08B50379022B0CD0064A0749BC
:104DF000074840F6755304F0B7F9404080F3118836
:104E00004FF0030002DF08BD05CA000051D10000C9
:104E10000BC4000010B5044605F04FFC60B1114A08
:104E20001149124840F2CF4304F09EF9404080F30C
:104E300011884FF0030002DF05F0A5FC60B1094ABC
:104E400009490A4840F2D44304F08EF9404080F307
:104E500011884FF0030002DF2046BDE8104003F048
:104E600015BE00BF92CA000006CB00000BC40000B4
:104E70002DE9F8431A4B1B4F93F8009098461E1DDE
:104E8000B9F1000F0ED0FC787A78BB780134E4B227
:104E9000A24208BF00249C4204D0304605F003F92A
:104EA000054608B9BDE8F8830F4805F0FCF828B9B5
:104EB00028460E49BDE8F84305F00EB90560FA78BA
:104EC0003B7802FB037309F1FF39586098F8003012
:104ED000FC70013B5FFA89F988F80030D0E700BF29
:104EE000640A00201C010020AC0A0020680A00208F
:104EF0003A4B2DE9F041181D0322382105F0AFF897
:104F0000374B384F364E03220821181D05F0A7F8FD
:104F1000B846FC787A78BB780134E4B2A24208BF84
:104F200000249C420DD0304605F0BDF8054640B146
:104F30002A4805F0B8F8002845D12949284605F047
:104F4000CBF8294B0622181D482105F088F8274B7D
:104F50000822181D114605F082F8244805F0A3F830
:104F6000044660B9224A2349234840F2B64304F07C
:104F7000FBF8404080F311884FF0030002DF1F4A26
:104F80002046111F05F0D7F8184805F08CF80446A4
:104F900060B9174A1749184840F2BD4304F0E4F8D5
:104FA000404080F311884FF0030002DF144A20468E
:104FB000111F05F0C0F8134B06221A70FFF758FFB7
:104FC0000020BDE8F081056098F8032098F80030D3
:104FD00002FB0383586088F803409AE79C0900208D
:104FE000480A002008010020AC0A0020680A0020BE
:104FF00092CA00000BCB00000BC400006C0C002018
:10500000640C0020640A002010B5234B86B01860A1
:1050100001F01CFBFEF712FD204A022010741076EE
:1050200003211F4811700423137205901D4804903A
:105030001D4803901D4802900B20CDE900201C4A1A
:105040000020FFF7FDF960B11A4A1B491B4840F2E6
:10505000171304F089F8404080F311884FF00300E3
:1050600002DF01220021164806F090F800F050FF00
:10507000044670B9FFF73CFF044650B905F081FBC8
:10508000044630B905F0EDFA044610B9012000F0ED
:10509000C7FD204606B010BD700C0020580F002040
:1050A0000DA80000CD6E0000756E00001C0D0020E4
:1050B0008C0C002092CA000006CB00000BC400003C
:1050C000740C002010B586B005F0CDFA60B1254A09
:1050D0002549264840F2651304F046F8404080F325
:1050E00011884FF0030002DF002000F099FD204BF3
:1050F00000245C801F4B5C801F4B5C80012221469A
:10510000684606F043F81D4B224621460320C3F8AB
:1051100008D0FEF7BDFC60B1124A1949134840F2AD
:10512000B71304F021F8404080F311884FF00300DA
:1051300002DF4FF0FF324FF0FF33684603F0CCFC44
:10514000FFF7D6FE60B1074A0749084840F2C3138B
:1051500004F00AF8404080F311884FF0030002DFAA
:1051600006B010BD92CA000006CB00000BC40000C0
:1051700034010020080100201C01002058020020FA
:1051800010CB000013B500230360064B044601AAB0
:10519000D3E9000104F0D9FF08B1019B236000208E
:1051A00002B010BD600C002013B5184900234868F8
:1051B000019301AA04F0D1FF044660B9144A1549CD
:1051C000154840F2152303F0CFFF404080F31188CB
:1051D0004FF0030002DF1149204604F07DFF019BE0
:1051E0001B7973B90A4A0E4940F2A1230A4803F019
:1051F000BBFF404080F311884FF0030002DF02B094
:1052000010BD034A074940F2A523EFE7600C0020D8
:1052100092CA00000BCB00000BC40000680A0020FB
:1052200018CB000051D100002DE9F0410468204E58
:10523000204F054624B92C60BDE8F041FFF718BEA9
:105240002379D4F800802BBB1B491C4840F23E3325
:10525000324603F089FF404080F311884FF003008D
:1052600002DF3B78052B0CD9154914484FF45973CC
:10527000324603F079FF404080F311884FF003007D
:1052800002DF3B780F49013320463B7004F024FFD6
:105290004446CFE70C4909484FF45673324603F0B1
:1052A00063FF404080F311884FF0030002DFEFE717
:1052B00092CA0000640A002036CB00000BC4000034
:1052C00059CB0000AC0A002051D100000860014811
:1052D00003F0DCBB740C002010B50C464FF0FF321D
:1052E0004FF0FF33024803F0F7FB206810BD00BF0A
:1052F000740C0020024B1A6802B9186018687047D5
:1053000098090020054A0346106830B183424FF0E7
:10531000000301D1136070471846704798090020B8
:10532000014B1868704700BF9809002030B5056828
:1053300015F1100F87B0044602D1002007B030BD30
:1053400001220021684605F021FF124B6B612B7C86
:10535000C5F818D0002BF0D00F4B002211460320C7
:105360009C60FEF795FB60B10C4A0D490D4840F278
:10537000194303F0F9FE404080F311884FF0030019
:1053800002DF4FF0FF324FF0FF33684603F0A4FB1B
:10539000D4E700BF5FA600006802002092CA0000A8
:1053A0008DCB00000BC40000014A04F0C7BE00BF53
:1053B0006C0C00200122024B11460020FEF768BB56
:1053C000780200202DE9F843174E9946F378347897
:1053D00080465D1C70780F46EDB21146B278A84247
:1053E00008BF0025AA421BD0321D03FB0424BCB118
:1053F0001022204604F09EFD089B9DF82420E361C6
:1054000094F82030A76123F0030302F00102C4E9FD
:105410000498134384F82030F5700020BDE8F88329
:105420006FF03600FAE700BF34010020054B9A7890
:10543000D978187891421ABF043302FB003000205B
:10544000704700BF340100202DE9F341604D614CED
:1054500001AAD4E9000104F078FE0746002800F014
:10546000B480019B63B95C4A5C495D4840F2D1530A
:1054700003F07AFE404080F311884FF0030002DF12
:10548000019E3379012B40F09280606851490022DF
:1054900004F063FE96F82430346A63B14E4A5149F1
:1054A0004F4840F28A6303F05FFE404080F311886A
:1054B0004FF0030002DF4C4AD17892F801C0907897
:1054C000002386F824304B1CDBB29C4508BF002328
:1054D00098425BD1404A4549414840F2916303F00C
:1054E00043FE404080F311884FF0030002DFFFF7D6
:1054F0009DFF3F4F50B390F820309A07C3F340060A
:1055000003F0010814D4B860394B3246314601200B
:10551000FEF7BEFA60B1304A3649314840F2A26324
:1055200003F022FE404080F311884FF0030002DFB9
:10553000AB78E9786A78994205D00133DBB29A42B8
:1055400008BF0023AB70FFF771FF30BB002C3FF4A6
:105550007EAF237863B9204A2749214840F2B463DB
:1055600003F002FE404080F311884FF0030002DF99
:105570002378013BDBB22370002B7FF468AF6368B4
:10558000002B3FF464AFA068984760E7376010785D
:1055900000FB01214E60D370A9E7002EAAD1B8F11B
:1055A000000FD3D090F82030DB07CFD4A2E70A4A0F
:1055B0000C490B4840F2626303F0D6FD404080F393
:1055C00011884FF0030002DF41E702B0BDE8F0812F
:1055D00034010020680C002092CA000092CB000029
:1055E0000BC4000051D100000801002095CB000041
:1055F000880200208DCB0000A5CB000030B50C4AFE
:10560000034654781978D5781078A14224BF92784F
:105610001A7019788D4209D04A1CD2B2944208BF40
:105620000022044C1A7001FB004030BD0020FCE752
:10563000340100203801002038B5104A9378D4781E
:1056400055789C420146107816D003FB00200133A8
:105650004468DBB29D4208BF0023937054B100231D
:10566000206823600123237121622146FFF79CFEFD
:10567000FFF7A0FE204638BD0024FBE7080100200C
:105680002DE9F0411C464FF6FF739A428AB08046DE
:105690000F4616462DD0237C0133DBB2237463B949
:1056A0002D4A2E492E484FF48A6303F05DFD404099
:1056B00080F311884FF0030002DF2A4D04F11C0330
:1056C000EB600022284B2E8111460120C5E900879E
:1056D0009D60FEF7DDF960B11F4A2449204840F281
:1056E0005C4303F041FD404080F311884FF003001C
:1056F00002DF042109A804F0DEFF0999069440F2B4
:105700004712B1FBF2F302FB1313194A0020CC211C
:10571000A21AB2FBF1F21749059102320133CDE929
:105720000300CDE901000090D2B201210993FEF7F8
:1057300027FF30F002030CD0074A0F49084840F217
:10574000724303F011FD404080F311884FF00300D5
:1057500002DF0AB0BDE8F081CFCB0000AECB000085
:105760000BC4000058100020980200208DCB0000D0
:10577000800F00207D57000047CC000010B50C467C
:1057800080B1FFF7CDFD84420CD0074A0749084895
:1057900040F27B4303F0E8FC404080F311884FF077
:1057A000030002DF10BD00BFCFCB000060CC0000C3
:1057B0000BC40000F7B5314C0746206800902079F3
:1057C0002F4C8DF8040094F8C86016F0010652D1F1
:1057D0009DF824009DF8285000F0070040EA85104D
:1057E00094F824500DF1080C012905F038056144A6
:1057F00040EA050094F8265084F8240011F8081CAB
:105800004FF0270005FB00004FEA821501F00F0161
:1058100005F0400242EA010202F00F0108BF002732
:105820000129A4F8CA70225404EB00071ED163F3C7
:10583000C71222540899062207F1080004F07AFBE7
:105840000C237B7094F876107722272313FB012317
:1058500005F0400545F00405E554E218537813B906
:10586000062151701E46304603B0F0BD7B78002BF8
:10587000E8D10623E5E70C26F5E700BF84B8000071
:10588000800F00202DE9F0411D4C94F8265027236D
:1058900005FB03330F46E118E35C064603F00F00F7
:1058A000012805F1010227D094F82500A84203D170
:1058B000D5B2022D08BF0025C3F3801CC3F303003B
:1058C000272240EA8C1005FB022203F0800304EB40
:1058D00002080343A3540231062208F1020004F037
:1058E00029FB3246394608F10800063604F022FB4F
:1058F00088F8016084F826500020BDE8F08100BFE0
:10590000800F00202DE9F041194B93F87640772263
:105910000546272010FB042093F87520A2428846F4
:105920001E4603EB000104D10134E4B2022C08BF8F
:1059300000241B5C77272722C3F3801312FB047219
:105940009B01B71843F00403B354AB1D7B700622D0
:105950000231B81C04F0EEFA2A46414607F108006D
:1059600004F0E8FA86F876400020BDE8F08100BF38
:10597000800F00200068034BC01ACC23B0FBF3F06B
:1059800080B27047800F002038B9054890F8C830C1
:1059900013F0010F08BF002070470020704700BFC0
:1059A000800F002030B585B0022300200393FFF75D
:1059B000EBFF044610B90C2005B030BDFFF79AFC90
:1059C00084420CD02B4A2C492C4840F20B5303F054
:1059D000CBFB404080F311884FF0030002DF03ADA2
:1059E0000321274B009502220020FEF711FE2946D5
:1059F000FFF772FC90B12046FFF77CFC8442DAD0BE
:105A00001C4A1D491D4840F2245303F0ADFB4040A1
:105A100080F311884FF0030002DFCCE704F11C0093
:105A2000FFF784FC60B1134A1649144840F22A5328
:105A300003F09AFB404080F311884FF0030002DF2F
:105A40002046FFF75FFC84420CD00A4A0A490B4803
:105A500040F22D5303F088FB404080F311884FF053
:105A6000030002DF94F8C8306FF3000384F8C830F5
:105A70000020A1E7CFCB00008FCC00000BC40000BA
:105A8000CD5200008DCB000010B1831E012B03D836
:105A9000034B9870002070476FF01500704700BFEF
:105AA000E3180020831E122B9DBF034B587000206B
:105AB0006FF01500704700BFE3180020014B5878C5
:105AC000C0007047E3180020014B01221A70704794
:105AD000E318002010B50C4CA07803280FD1637890
